{"bytecode":"6101406040523480156200001257600080fd5b5060405162002a3c38038062002a3c8339810160408190526200003591620009ba565b604051806040016040528060088152602001672123242a37b5b2b760c11b81525080604051806040016040528060018152602001603160f81b815250604051806040016040528060088152602001672123242a27a5a2a760c11b815250604051806040016040528060048152602001631091921560e21b8152508160039081620000c0919062000a7a565b506004620000cf828262000a7a565b5050825160209384012082519284019290922060e08390526101008190524660a0818152604080517f8b73c3c69bb8fe3d512ecc4cf759cc79239f7b179b0ffacaa9a75d522b39400f818901819052818301979097526060810194909452608080850193909352308483018190528151808603909301835260c09485019091528151919096012090529290925261012052506000905060646200017d8369d3c21bcecceda100000062000b5c565b62000189919062000b76565b9050620001a13369d3c21bcecceda10000006200020d565b620001c33330620001bd8469d3c21bcecceda100000062000b99565b62000261565b5050600c80546001810182556000919091527fdf6966c971051c3d54ec59162606531493a51404a002842f56009d7e5cf4a8c70180546001600160a01b0319163317905562000bc5565b6200021982826200040c565b816001600160a01b03167fb9144c96c86541f6fa89c9f2f02495cccf4b08cd6643e26d34ee00aa586558a8826040516200025591815260200190565b60405180910390a25050565b6001600160a01b038316620002cb5760405162461bcd60e51b815260206004820152602560248201527f45524332303a207472616e736665722066726f6d20746865207a65726f206164604482015264647265737360d81b60648201526084015b60405180910390fd5b6001600160a01b0382166200032f5760405162461bcd60e51b815260206004820152602360248201527f45524332303a207472616e7366657220746f20746865207a65726f206164647260448201526265737360e81b6064820152608401620002c2565b6001600160a01b03831660009081526020819052604090205481811015620003a95760405162461bcd60e51b815260206004820152602660248201527f45524332303a207472616e7366657220616d6f756e7420657863656564732062604482015265616c616e636560d01b6064820152608401620002c2565b6001600160a01b0384811660008181526020818152604080832087870390559387168083529184902080548701905592518581529092600080516020620029fc833981519152910160405180910390a362000406848484620004b3565b50505050565b62000418828262000513565b6001600160e01b036200042c620005d38216565b1115620004955760405162461bcd60e51b815260206004820152603060248201527f4552433230566f7465733a20746f74616c20737570706c79207269736b73206f60448201526f766572666c6f77696e6720766f74657360801b6064820152608401620002c2565b62000406600962000c36620005d960201b1783620005f0565b505050565b620004c083838362000767565b816001600160a01b0316836001600160a01b03167fec61728879a33aa50b55e1f4789dcfc1c680f30a24d7b8694a9f874e242a97b4836040516200050691815260200190565b60405180910390a3505050565b6001600160a01b0382166200056b5760405162461bcd60e51b815260206004820152601f60248201527f45524332303a206d696e7420746f20746865207a65726f2061646472657373006044820152606401620002c2565b80600260008282546200057f919062000baf565b90915550506001600160a01b03821660008181526020818152604080832080548601905551848152600080516020620029fc833981519152910160405180910390a3620005cf60008383620004b3565b5050565b60025490565b6000620005e7828462000baf565b90505b92915050565b8254600090819081811562000650576200061f876200061160018562000b99565b600091825260209091200190565b60408051808201909152905463ffffffff8116825264010000000090046001600160e01b0316602082015262000665565b60408051808201909152600080825260208201525b905080602001516001600160e01b031693506200068384868860201c565b92506000821180156200069c5750805163ffffffff1643145b15620006e857620006ad836200079b565b620006bf886200061160018662000b99565b80546001600160e01b03929092166401000000000263ffffffff9092169190911790556200075d565b86604051806040016040528062000705436200080a60201b60201c565b63ffffffff1681526020016200071b866200079b565b6001600160e01b0390811690915282546001810184556000938452602093849020835194909301519091166401000000000263ffffffff909316929092179101555b5050935093915050565b6001600160a01b03838116600090815260076020526040808220548584168352912054620004ae9291821691168362000871565b60006001600160e01b03821115620008065760405162461bcd60e51b815260206004820152602760248201527f53616665436173743a2076616c756520646f65736e27742066697420696e20326044820152663234206269747360c81b6064820152608401620002c2565b5090565b600063ffffffff821115620008065760405162461bcd60e51b815260206004820152602660248201527f53616665436173743a2076616c756520646f65736e27742066697420696e203360448201526532206269747360d01b6064820152608401620002c2565b816001600160a01b0316836001600160a01b031614158015620008945750600081115b15620004ae576001600160a01b0383161562000921576001600160a01b038316600090815260086020908152604082208291620008de9190620009ac901b62000c421785620005f0565b91509150846001600160a01b031660008051602062002a1c833981519152838360405162000916929190918252602082015260400190565b60405180910390a250505b6001600160a01b03821615620004ae576001600160a01b038216600090815260086020908152604082208291620009659190620005d9901b62000c361785620005f0565b91509150836001600160a01b031660008051602062002a1c83398151915283836040516200099d929190918252602082015260400190565b60405180910390a25050505050565b6000620005e7828462000b99565b600060208284031215620009cd57600080fd5b5051919050565b634e487b7160e01b600052604160045260246000fd5b600181811c90821680620009ff57607f821691505b60208210810362000a2057634e487b7160e01b600052602260045260246000fd5b50919050565b601f821115620004ae576000816000526020600020601f850160051c8101602086101562000a515750805b601f850160051c820191505b8181101562000a725782815560010162000a5d565b505050505050565b81516001600160401b0381111562000a965762000a96620009d4565b62000aae8162000aa78454620009ea565b8462000a26565b602080601f83116001811462000ae6576000841562000acd5750858301515b600019600386901b1c1916600185901b17855562000a72565b600085815260208120601f198616915b8281101562000b175788860151825594840194600190910190840162000af6565b508582101562000b365787850151600019600388901b60f8161c191681555b5050505050600190811b01905550565b634e487b7160e01b600052601160045260246000fd5b8082028115828204841417620005ea57620005ea62000b46565b60008262000b9457634e487b7160e01b600052601260045260246000fd5b500490565b81810381811115620005ea57620005ea62000b46565b80820180821115620005ea57620005ea62000b46565b60805160a05160c05160e0516101005161012051611de762000c156000396000611021015260006110700152600061104b01526000610fa401526000610fce01526000610ff80152611de76000f3fe608060405234801561001057600080fd5b50600436106101cf5760003560e01c80636fcfff4511610104578063a457c2d7116100a2578063d505accf11610071578063d505accf146103ed578063dd62ed3e14610400578063f1127ed814610413578063fe3f53eb1461045057600080fd5b8063a457c2d7146103a1578063a9059cbb146103b4578063a9fb763c146103c7578063c3cda520146103da57600080fd5b80637ecebe00116100de5780637ecebe00146103605780638e539e8c1461037357806395d89b41146103865780639ab24eb01461038e57600080fd5b80636fcfff451461030657806370a082311461032e57806373d4a13a1461035757600080fd5b80633644e5151161017157806348c54b9d1161014b57806348c54b9d146102b75780634f21869c146102bf578063587cde1e146102c75780635c19a95c146102f357600080fd5b80633644e5151461028957806339509351146102915780633a46b1a8146102a457600080fd5b806314f5f017116101ad57806314f5f0171461022a57806318160ddd1461025557806323b872dd14610267578063313ce5671461027a57600080fd5b806305ab421d146101d457806306fdde03146101e9578063095ea7b314610207575b600080fd5b6101e76101e2366004611a86565b610473565b005b6101f1610493565b6040516101fe9190611ab2565b60405180910390f35b61021a610215366004611a86565b610525565b60405190151581526020016101fe565b61023d610238366004611b01565b61053f565b6040516001600160a01b0390911681526020016101fe565b6002545b6040519081526020016101fe565b61021a610275366004611b1a565b610569565b604051601281526020016101fe565b61025961058d565b61021a61029f366004611a86565b61059c565b6102596102b2366004611a86565b6105be565b6101e761063d565b600c54610259565b61023d6102d5366004611b5b565b6001600160a01b039081166000908152600760205260409020541690565b6101e7610301366004611b5b565b61070e565b610319610314366004611b5b565b61071b565b60405163ffffffff90911681526020016101fe565b61025961033c366004611b5b565b6001600160a01b031660009081526020819052604090205490565b610259600a5481565b61025961036e366004611b5b565b61073d565b610259610381366004611b01565b61075b565b6101f16107b7565b61025961039c366004611b5b565b6107c6565b61021a6103af366004611a86565b61084d565b61021a6103c2366004611a86565b6108c8565b6101e76103d5366004611b01565b6108d6565b6101e76103e8366004611b8e565b6108ed565b6101e76103fb366004611be8565b610a23565b61025961040e366004611c56565b610b87565b610426610421366004611c8f565b610bb2565b60408051825163ffffffff1681526020928301516001600160e01b031692810192909252016101fe565b61021a61045e366004611b5b565b600b6020526000908152604090205460ff1681565b61048f308361048a84670de0b6b3a7640000611cdc565b610c4e565b5050565b6060600380546104a290611cf3565b80601f01602080910402602001604051908101604052809291908181526020018280546104ce90611cf3565b801561051b5780601f106104f05761010080835404028352916020019161051b565b820191906000526020600020905b8154815290600101906020018083116104fe57829003601f168201915b5050505050905090565b600033610533818585610dfe565b60019150505b92915050565b600c818154811061054f57600080fd5b6000918252602090912001546001600160a01b0316905081565b600033610577858285610f23565b610582858585610c4e565b506001949350505050565b6000610597610f97565b905090565b6000336105338185856105af8383610b87565b6105b99190611d27565b610dfe565b60004382106106145760405162461bcd60e51b815260206004820152601f60248201527f4552433230566f7465733a20626c6f636b206e6f7420796574206d696e65640060448201526064015b60405180910390fd5b6001600160a01b038316600090815260086020526040902061063690836110be565b9392505050565b336000908152600b602052604090205460ff16156106965760405162461bcd60e51b8152602060048201526016602482015275416c726561647920636c61696d656420746f6b656e7360501b604482015260640161060b565b336000818152600b60205260409020805460ff191660011790556106ca90309061048a6107d0670de0b6b3a7640000611cdc565b600c80546001810182556000919091527fdf6966c971051c3d54ec59162606531493a51404a002842f56009d7e5cf4a8c70180546001600160a01b03191633179055565b61071833826111b5565b50565b6001600160a01b0381166000908152600860205260408120546105399061122e565b6001600160a01b038116600090815260056020526040812054610539565b60004382106107ac5760405162461bcd60e51b815260206004820152601f60248201527f4552433230566f7465733a20626c6f636b206e6f7420796574206d696e656400604482015260640161060b565b6105396009836110be565b6060600480546104a290611cf3565b6001600160a01b038116600090815260086020526040812054801561083a576001600160a01b0383166000908152600860205260409020610808600183611d3a565b8154811061081857610818611d4d565b60009182526020909120015464010000000090046001600160e01b031661083d565b60005b6001600160e01b03169392505050565b6000338161085b8286610b87565b9050838110156108bb5760405162461bcd60e51b815260206004820152602560248201527f45524332303a2064656372656173656420616c6c6f77616e63652062656c6f77604482015264207a65726f60d81b606482015260840161060b565b6105828286868403610dfe565b600033610533818585610c4e565b610718303361048a84670de0b6b3a7640000611cdc565b8342111561093d5760405162461bcd60e51b815260206004820152601d60248201527f4552433230566f7465733a207369676e61747572652065787069726564000000604482015260640161060b565b604080517fe48329057bfd03d55e49b547132e39cffd9c1820ad7b9d4c5307691425d15adf60208201526001600160a01b0388169181019190915260608101869052608081018590526000906109b7906109af9060a00160405160208183030381529060405280519060200120611297565b8585856112e5565b90506109c28161130d565b8614610a105760405162461bcd60e51b815260206004820152601960248201527f4552433230566f7465733a20696e76616c6964206e6f6e636500000000000000604482015260640161060b565b610a1a81886111b5565b50505050505050565b83421115610a735760405162461bcd60e51b815260206004820152601d60248201527f45524332305065726d69743a206578706972656420646561646c696e65000000604482015260640161060b565b60007f6e71edae12b1b97f4d1f60370fef10105fa2faae0126114a169c64845d6126c9888888610aa28c61130d565b6040805160208101969096526001600160a01b0394851690860152929091166060840152608083015260a082015260c0810186905260e0016040516020818303038152906040528051906020012090506000610afd82611297565b90506000610b0d828787876112e5565b9050896001600160a01b0316816001600160a01b031614610b705760405162461bcd60e51b815260206004820152601e60248201527f45524332305065726d69743a20696e76616c6964207369676e61747572650000604482015260640161060b565b610b7b8a8a8a610dfe565b50505050505050505050565b6001600160a01b03918216600090815260016020908152604080832093909416825291909152205490565b60408051808201909152600080825260208201526001600160a01b0383166000908152600860205260409020805463ffffffff8416908110610bf657610bf6611d4d565b60009182526020918290206040805180820190915291015463ffffffff8116825264010000000090046001600160e01b0316918101919091529392505050565b60006106368284611d27565b60006106368284611d3a565b6001600160a01b038316610cb25760405162461bcd60e51b815260206004820152602560248201527f45524332303a207472616e736665722066726f6d20746865207a65726f206164604482015264647265737360d81b606482015260840161060b565b6001600160a01b038216610d145760405162461bcd60e51b815260206004820152602360248201527f45524332303a207472616e7366657220746f20746865207a65726f206164647260448201526265737360e81b606482015260840161060b565b6001600160a01b03831660009081526020819052604090205481811015610d8c5760405162461bcd60e51b815260206004820152602660248201527f45524332303a207472616e7366657220616d6f756e7420657863656564732062604482015265616c616e636560d01b606482015260840161060b565b6001600160a01b03848116600081815260208181526040808320878703905593871680835291849020805487019055925185815290927fddf252ad1be2c89b69c2b068fc378daa952ba7f163c4a11628f55a4df523b3ef910160405180910390a3610df884848461133a565b50505050565b6001600160a01b038316610e605760405162461bcd60e51b8152602060048201526024808201527f45524332303a20617070726f76652066726f6d20746865207a65726f206164646044820152637265737360e01b606482015260840161060b565b6001600160a01b038216610ec15760405162461bcd60e51b815260206004820152602260248201527f45524332303a20617070726f766520746f20746865207a65726f206164647265604482015261737360f01b606482015260840161060b565b6001600160a01b0383811660008181526001602090815260408083209487168084529482529182902085905590518481527f8c5be1e5ebec7d5bd14f71427d1e84f3dd0314c0f7b2291e5b200ac8c7c3b92591015b60405180910390a3505050565b6000610f2f8484610b87565b90506000198114610df85781811015610f8a5760405162461bcd60e51b815260206004820152601d60248201527f45524332303a20696e73756666696369656e7420616c6c6f77616e6365000000604482015260640161060b565b610df88484848403610dfe565b6000306001600160a01b037f000000000000000000000000000000000000000000000000000000000000000016148015610ff057507f000000000000000000000000000000000000000000000000000000000000000046145b1561101a57507f000000000000000000000000000000000000000000000000000000000000000090565b50604080517f00000000000000000000000000000000000000000000000000000000000000006020808301919091527f0000000000000000000000000000000000000000000000000000000000000000828401527f000000000000000000000000000000000000000000000000000000000000000060608301524660808301523060a0808401919091528351808403909101815260c0909201909252805191012090565b8154600090818160058111156111185760006110d98461138a565b6110e39085611d3a565b600088815260209020909150869082015463ffffffff16111561110857809150611116565b611113816001611d27565b92505b505b8082101561116557600061112c8383611472565b600088815260209020909150869082015463ffffffff1611156111515780915061115f565b61115c816001611d27565b92505b50611118565b801561119f576111888661117a600184611d3a565b600091825260209091200190565b5464010000000090046001600160e01b03166111a2565b60005b6001600160e01b03169695505050505050565b6001600160a01b038281166000818152600760208181526040808420805485845282862054949093528787166001600160a01b03198416811790915590519190951694919391928592917f3134e8a2e6d97e929a7e54011ea5485d7d196dd5f0ba4d4ef95803e8e3fc257f9190a4610df882848361148d565b600063ffffffff8211156112935760405162461bcd60e51b815260206004820152602660248201527f53616665436173743a2076616c756520646f65736e27742066697420696e203360448201526532206269747360d01b606482015260840161060b565b5090565b60006105396112a4610f97565b8360405161190160f01b6020820152602281018390526042810182905260009060620160405160208183030381529060405280519060200120905092915050565b60008060006112f6878787876115ca565b915091506113038161168e565b5095945050505050565b6001600160a01b03811660009081526005602052604090208054600181018255905b50919050565b505050565b6113458383836117d8565b816001600160a01b0316836001600160a01b03167fec61728879a33aa50b55e1f4789dcfc1c680f30a24d7b8694a9f874e242a97b483604051610f1691815260200190565b60008160000361139c57506000919050565b600060016113a98461180a565b901c6001901b905060018184816113c2576113c2611d63565b048201901c905060018184816113da576113da611d63565b048201901c905060018184816113f2576113f2611d63565b048201901c9050600181848161140a5761140a611d63565b048201901c9050600181848161142257611422611d63565b048201901c9050600181848161143a5761143a611d63565b048201901c9050600181848161145257611452611d63565b048201901c90506106368182858161146c5761146c611d63565b0461189e565b60006114816002848418611d79565b61063690848416611d27565b816001600160a01b0316836001600160a01b0316141580156114af5750600081115b15611335576001600160a01b0383161561153d576001600160a01b038316600090815260086020526040812081906114ea90610c42856118b4565b91509150846001600160a01b03167fdec2bacdd2f05b59de34da9b523dff8be42e5e38e818c82fdb0bae774387a7248383604051611532929190918252602082015260400190565b60405180910390a250505b6001600160a01b03821615611335576001600160a01b0382166000908152600860205260408120819061157390610c36856118b4565b91509150836001600160a01b03167fdec2bacdd2f05b59de34da9b523dff8be42e5e38e818c82fdb0bae774387a72483836040516115bb929190918252602082015260400190565b60405180910390a25050505050565b6000807f7fffffffffffffffffffffffffffffff5d576e7357a4501ddfe92f46681b20a08311156116015750600090506003611685565b6040805160008082526020820180845289905260ff881692820192909252606081018690526080810185905260019060a0016020604051602081039080840390855afa158015611655573d6000803e3d6000fd5b5050604051601f1901519150506001600160a01b03811661167e57600060019250925050611685565b9150600090505b94509492505050565b60008160048111156116a2576116a2611d9b565b036116aa5750565b60018160048111156116be576116be611d9b565b0361170b5760405162461bcd60e51b815260206004820152601860248201527f45434453413a20696e76616c6964207369676e61747572650000000000000000604482015260640161060b565b600281600481111561171f5761171f611d9b565b0361176c5760405162461bcd60e51b815260206004820152601f60248201527f45434453413a20696e76616c6964207369676e6174757265206c656e67746800604482015260640161060b565b600381600481111561178057611780611d9b565b036107185760405162461bcd60e51b815260206004820152602260248201527f45434453413a20696e76616c6964207369676e6174757265202773272076616c604482015261756560f01b606482015260840161060b565b6001600160a01b038381166000908152600760205260408082205485841683529120546113359291821691168361148d565b600080608083901c1561181f57608092831c92015b604083901c1561183157604092831c92015b602083901c1561184357602092831c92015b601083901c1561185557601092831c92015b600883901c1561186757600892831c92015b600483901c1561187957600492831c92015b600283901c1561188b57600292831c92015b600183901c156105395760010192915050565b60008183106118ad5781610636565b5090919050565b82546000908190818115611901576118d18761117a600185611d3a565b60408051808201909152905463ffffffff8116825264010000000090046001600160e01b03166020820152611916565b60408051808201909152600080825260208201525b905080602001516001600160e01b0316935061193684868863ffffffff16565b925060008211801561194e5750805163ffffffff1643145b156119935761195c83611a08565b61196b8861117a600186611d3a565b80546001600160e01b03929092166401000000000263ffffffff9092169190911790556119fe565b8660405180604001604052806119a84361122e565b63ffffffff1681526020016119bc86611a08565b6001600160e01b0390811690915282546001810184556000938452602093849020835194909301519091166401000000000263ffffffff909316929092179101555b5050935093915050565b60006001600160e01b038211156112935760405162461bcd60e51b815260206004820152602760248201527f53616665436173743a2076616c756520646f65736e27742066697420696e20326044820152663234206269747360c81b606482015260840161060b565b6001600160a01b038116811461071857600080fd5b60008060408385031215611a9957600080fd5b8235611aa481611a71565b946020939093013593505050565b60006020808352835180602085015260005b81811015611ae057858101830151858201604001528201611ac4565b506000604082860101526040601f19601f8301168501019250505092915050565b600060208284031215611b1357600080fd5b5035919050565b600080600060608486031215611b2f57600080fd5b8335611b3a81611a71565b92506020840135611b4a81611a71565b929592945050506040919091013590565b600060208284031215611b6d57600080fd5b813561063681611a71565b803560ff81168114611b8957600080fd5b919050565b60008060008060008060c08789031215611ba757600080fd5b8635611bb281611a71565b95506020870135945060408701359350611bce60608801611b78565b92506080870135915060a087013590509295509295509295565b600080600080600080600060e0888a031215611c0357600080fd5b8735611c0e81611a71565b96506020880135611c1e81611a71565b95506040880135945060608801359350611c3a60808901611b78565b925060a0880135915060c0880135905092959891949750929550565b60008060408385031215611c6957600080fd5b8235611c7481611a71565b91506020830135611c8481611a71565b809150509250929050565b60008060408385031215611ca257600080fd5b8235611cad81611a71565b9150602083013563ffffffff81168114611c8457600080fd5b634e487b7160e01b600052601160045260246000fd5b808202811582820484141761053957610539611cc6565b600181811c90821680611d0757607f821691505b60208210810361132f57634e487b7160e01b600052602260045260246000fd5b8082018082111561053957610539611cc6565b8181038181111561053957610539611cc6565b634e487b7160e01b600052603260045260246000fd5b634e487b7160e01b600052601260045260246000fd5b600082611d9657634e487b7160e01b600052601260045260246000fd5b500490565b634e487b7160e01b600052602160045260246000fdfea2646970667358221220ba259b2ff39205c50bc0703ad5e6d951756da583a87f483e61f30e07c07193b064736f6c63430008180033ddf252ad1be2c89b69c2b068fc378daa952ba7f163c4a11628f55a4df523b3efdec2bacdd2f05b59de34da9b523dff8be42e5e38e818c82fdb0bae774387a724","bytecodeSha1":"da39a3ee5e6b4b0d3255bfef95601890afd80709","type":"contract","abi":[{"inputs":[{"internalType":"uint256","name":"_keepPercentage","type":"uint256"}],"stateMutability":"nonpayable","type":"constructor","name":"constructor"},{"anonymous":false,"inputs":[{"indexed":true,"internalType":"address","name":"owner","type":"address"},{"indexed":true,"internalType":"address","name":"spender","type":"address"},{"indexed":false,"internalType":"uint256","name":"value","type":"uint256"}],"name":"Approval","type":"event"},{"anonymous":false,"inputs":[{"indexed":true,"internalType":"address","name":"delegator","type":"address"},{"indexed":true,"internalType":"address","name":"fromDelegate","type":"address"},{"indexed":true,"internalType":"address","name":"toDelegate","type":"address"}],"name":"DelegateChanged","type":"event"},{"anonymous":false,"inputs":[{"indexed":true,"internalType":"address","name":"delegate","type":"address"},{"indexed":false,"internalType":"uint256","name":"previousBalance","type":"uint256"},{"indexed":false,"internalType":"uint256","name":"newBalance","type":"uint256"}],"name":"DelegateVotesChanged","type":"event"},{"anonymous":false,"inputs":[{"indexed":true,"internalType":"address","name":"from","type":"address"},{"indexed":false,"internalType":"uint256","name":"amount","type":"uint256"}],"name":"TokenBurned","type":"event"},{"anonymous":false,"inputs":[{"indexed":true,"internalType":"address","name":"to","type":"address"},{"indexed":false,"internalType":"uint256","name":"amount","type":"uint256"}],"name":"TokenMinted","type":"event"},{"anonymous":false,"inputs":[{"indexed":true,"internalType":"address","name":"from","type":"address"},{"indexed":true,"internalType":"address","name":"to","type":"address"},{"indexed":false,"internalType":"uint256","name":"amount","type":"uint256"}],"name":"TokenTransfered","type":"event"},{"anonymous":false,"inputs":[{"indexed":true,"internalType":"address","name":"from","type":"address"},{"indexed":true,"internalType":"address","name":"to","type":"address"},{"indexed":false,"internalType":"uint256","name":"value","type":"uint256"}],"name":"Transfer","type":"event"},{"inputs":[],"name":"DOMAIN_SEPARATOR","outputs":[{"internalType":"bytes32","name":"","type":"bytes32"}],"stateMutability":"view","type":"function"},{"inputs":[{"internalType":"address","name":"owner","type":"address"},{"internalType":"address","name":"spender","type":"address"}],"name":"allowance","outputs":[{"internalType":"uint256","name":"","type":"uint256"}],"stateMutability":"view","type":"function"},{"inputs":[{"internalType":"address","name":"spender","type":"address"},{"internalType":"uint256","name":"amount","type":"uint256"}],"name":"approve","outputs":[{"internalType":"bool","name":"","type":"bool"}],"stateMutability":"nonpayable","type":"function"},{"inputs":[{"internalType":"address","name":"account","type":"address"}],"name":"balanceOf","outputs":[{"internalType":"uint256","name":"","type":"uint256"}],"stateMutability":"view","type":"function"},{"inputs":[{"internalType":"address","name":"account","type":"address"},{"internalType":"uint32","name":"pos","type":"uint32"}],"name":"checkpoints","outputs":[{"components":[{"internalType":"uint32","name":"fromBlock","type":"uint32"},{"internalType":"uint224","name":"votes","type":"uint224"}],"internalType":"struct ERC20Votes.Checkpoint","name":"","type":"tuple"}],"stateMutability":"view","type":"function"},{"inputs":[],"name":"claimTokens","outputs":[],"stateMutability":"nonpayable","type":"function"},{"inputs":[],"name":"data","outputs":[{"internalType":"uint256","name":"","type":"uint256"}],"stateMutability":"view","type":"function"},{"inputs":[],"name":"decimals","outputs":[{"internalType":"uint8","name":"","type":"uint8"}],"stateMutability":"view","type":"function"},{"inputs":[{"internalType":"address","name":"spender","type":"address"},{"internalType":"uint256","name":"subtractedValue","type":"uint256"}],"name":"decreaseAllowance","outputs":[{"internalType":"bool","name":"","type":"bool"}],"stateMutability":"nonpayable","type":"function"},{"inputs":[{"internalType":"address","name":"delegatee","type":"address"}],"name":"delegate","outputs":[],"stateMutability":"nonpayable","type":"function"},{"inputs":[{"internalType":"address","name":"delegatee","type":"address"},{"internalType":"uint256","name":"nonce","type":"uint256"},{"internalType":"uint256","name":"expiry","type":"uint256"},{"internalType":"uint8","name":"v","type":"uint8"},{"internalType":"bytes32","name":"r","type":"bytes32"},{"internalType":"bytes32","name":"s","type":"bytes32"}],"name":"delegateBySig","outputs":[],"stateMutability":"nonpayable","type":"function"},{"inputs":[{"internalType":"address","name":"account","type":"address"}],"name":"delegates","outputs":[{"internalType":"address","name":"","type":"address"}],"stateMutability":"view","type":"function"},{"inputs":[],"name":"getHolderLength","outputs":[{"internalType":"uint256","name":"","type":"uint256"}],"stateMutability":"view","type":"function"},{"inputs":[{"internalType":"uint256","name":"blockNumber","type":"uint256"}],"name":"getPastTotalSupply","outputs":[{"internalType":"uint256","name":"","type":"uint256"}],"stateMutability":"view","type":"function"},{"inputs":[{"internalType":"address","name":"account","type":"address"},{"internalType":"uint256","name":"blockNumber","type":"uint256"}],"name":"getPastVotes","outputs":[{"internalType":"uint256","name":"","type":"uint256"}],"stateMutability":"view","type":"function"},{"inputs":[{"internalType":"address","name":"account","type":"address"}],"name":"getVotes","outputs":[{"internalType":"uint256","name":"","type":"uint256"}],"stateMutability":"view","type":"function"},{"inputs":[{"internalType":"address","name":"spender","type":"address"},{"internalType":"uint256","name":"addedValue","type":"uint256"}],"name":"increaseAllowance","outputs":[{"internalType":"bool","name":"","type":"bool"}],"stateMutability":"nonpayable","type":"function"},{"inputs":[],"name":"name","outputs":[{"internalType":"string","name":"","type":"string"}],"stateMutability":"view","type":"function"},{"inputs":[{"internalType":"address","name":"owner","type":"address"}],"name":"nonces","outputs":[{"internalType":"uint256","name":"","type":"uint256"}],"stateMutability":"view","type":"function"},{"inputs":[{"internalType":"address","name":"account","type":"address"}],"name":"numCheckpoints","outputs":[{"internalType":"uint32","name":"","type":"uint32"}],"stateMutability":"view","type":"function"},{"inputs":[{"internalType":"address","name":"owner","type":"address"},{"internalType":"address","name":"spender","type":"address"},{"internalType":"uint256","name":"value","type":"uint256"},{"internalType":"uint256","name":"deadline","type":"uint256"},{"internalType":"uint8","name":"v","type":"uint8"},{"internalType":"bytes32","name":"r","type":"bytes32"},{"internalType":"bytes32","name":"s","type":"bytes32"}],"name":"permit","outputs":[],"stateMutability":"nonpayable","type":"function"},{"inputs":[{"internalType":"uint256","name":"amount","type":"uint256"}],"name":"reward","outputs":[],"stateMutability":"nonpayable","type":"function"},{"inputs":[{"internalType":"address","name":"","type":"address"}],"name":"s_claimedTokens","outputs":[{"internalType":"bool","name":"","type":"bool"}],"stateMutability":"view","type":"function"},{"inputs":[{"internalType":"uint256","name":"","type":"uint256"}],"name":"s_holders","outputs":[{"internalType":"address","name":"","type":"address"}],"stateMutability":"view","type":"function"},{"inputs":[{"internalType":"address payable","name":"receiver","type":"address"},{"internalType":"uint256","name":"amount","type":"uint256"}],"name":"sendTokens","outputs":[],"stateMutability":"nonpayable","type":"function"},{"inputs":[],"name":"symbol","outputs":[{"internalType":"string","name":"","type":"string"}],"stateMutability":"view","type":"function"},{"inputs":[],"name":"totalSupply","outputs":[{"internalType":"uint256","name":"","type":"uint256"}],"stateMutability":"view","type":"function"},{"inputs":[{"internalType":"address","name":"to","type":"address"},{"internalType":"uint256","name":"amount","type":"uint256"}],"name":"transfer","outputs":[{"internalType":"bool","name":"","type":"bool"}],"stateMutability":"nonpayable","type":"function"},{"inputs":[{"internalType":"address","name":"from","type":"address"},{"internalType":"address","name":"to","type":"address"},{"internalType":"uint256","name":"amount","type":"uint256"}],"name":"transferFrom","outputs":[{"internalType":"bool","name":"","type":"bool"}],"stateMutability":"nonpayable","type":"function"}],"compiler":{"version":"0.8.24+commit.e11b9ed9","evm_version":"istanbul","optimizer":{"enabled":true,"runs":200}},"contractName":"GovernanceToken","language":"Solidity","natspec":{"methods":{"DOMAIN_SEPARATOR()":{"details":"See {IERC20Permit-DOMAIN_SEPARATOR}."},"allowance(address,address)":{"details":"See {IERC20-allowance}."},"approve(address,uint256)":{"details":"See {IERC20-approve}. NOTE: If `amount` is the maximum `uint256`, the allowance is not updated on `transferFrom`. This is semantically equivalent to an infinite approval. Requirements: - `spender` cannot be the zero address."},"balanceOf(address)":{"details":"See {IERC20-balanceOf}."},"checkpoints(address,uint32)":{"details":"Get the `pos`-th checkpoint for `account`."},"decimals()":{"details":"Returns the number of decimals used to get its user representation. For example, if `decimals` equals `2`, a balance of `505` tokens should be displayed to a user as `5.05` (`505 / 10 ** 2`). Tokens usually opt for a value of 18, imitating the relationship between Ether and Wei. This is the value {ERC20} uses, unless this function is overridden; NOTE: This information is only used for _display_ purposes: it in no way affects any of the arithmetic of the contract, including {IERC20-balanceOf} and {IERC20-transfer}."},"decreaseAllowance(address,uint256)":{"details":"Atomically decreases the allowance granted to `spender` by the caller. This is an alternative to {approve} that can be used as a mitigation for problems described in {IERC20-approve}. Emits an {Approval} event indicating the updated allowance. Requirements: - `spender` cannot be the zero address. - `spender` must have allowance for the caller of at least `subtractedValue`."},"delegate(address)":{"details":"Delegate votes from the sender to `delegatee`."},"delegateBySig(address,uint256,uint256,uint8,bytes32,bytes32)":{"details":"Delegates votes from signer to `delegatee`"},"delegates(address)":{"details":"Get the address `account` is currently delegating to."},"getPastTotalSupply(uint256)":{"details":"Retrieve the `totalSupply` at the end of `blockNumber`. Note, this value is the sum of all balances. It is but NOT the sum of all the delegated votes! Requirements: - `blockNumber` must have been already mined"},"getPastVotes(address,uint256)":{"details":"Retrieve the number of votes for `account` at the end of `blockNumber`. Requirements: - `blockNumber` must have been already mined"},"getVotes(address)":{"details":"Gets the current votes balance for `account`"},"increaseAllowance(address,uint256)":{"details":"Atomically increases the allowance granted to `spender` by the caller. This is an alternative to {approve} that can be used as a mitigation for problems described in {IERC20-approve}. Emits an {Approval} event indicating the updated allowance. Requirements: - `spender` cannot be the zero address."},"name()":{"details":"Returns the name of the token."},"nonces(address)":{"details":"See {IERC20Permit-nonces}."},"numCheckpoints(address)":{"details":"Get number of checkpoints for `account`."},"permit(address,address,uint256,uint256,uint8,bytes32,bytes32)":{"details":"See {IERC20Permit-permit}."},"symbol()":{"details":"Returns the symbol of the token, usually a shorter version of the name."},"totalSupply()":{"details":"See {IERC20-totalSupply}."},"transfer(address,uint256)":{"details":"See {IERC20-transfer}. Requirements: - `to` cannot be the zero address. - the caller must have a balance of at least `amount`."},"transferFrom(address,address,uint256)":{"details":"See {IERC20-transferFrom}. Emits an {Approval} event indicating the updated allowance. This is not required by the EIP. See the note at the beginning of {ERC20}. NOTE: Does not update the allowance if the current allowance is the maximum `uint256`. Requirements: - `from` and `to` cannot be the zero address. - `from` must have a balance of at least `amount`. - the caller must have allowance for ``from``'s tokens of at least `amount`."}},"kind":"dev","version":1},"opcodes":"PUSH1 0x80 PUSH1 0x40 MSTORE CALLVALUE DUP1 ISZERO PUSH2 0x10 JUMPI PUSH1 0x0 DUP1 REVERT JUMPDEST POP PUSH1 0x4 CALLDATASIZE LT PUSH2 0x1CF JUMPI PUSH1 0x0 CALLDATALOAD PUSH1 0xE0 SHR DUP1 PUSH4 0x6FCFFF45 GT PUSH2 0x104 JUMPI DUP1 PUSH4 0xA457C2D7 GT PUSH2 0xA2 JUMPI DUP1 PUSH4 0xD505ACCF GT PUSH2 0x71 JUMPI DUP1 PUSH4 0xD505ACCF EQ PUSH2 0x3ED JUMPI DUP1 PUSH4 0xDD62ED3E EQ PUSH2 0x400 JUMPI DUP1 PUSH4 0xF1127ED8 EQ PUSH2 0x413 JUMPI DUP1 PUSH4 0xFE3F53EB EQ PUSH2 0x450 JUMPI PUSH1 0x0 DUP1 REVERT JUMPDEST DUP1 PUSH4 0xA457C2D7 EQ PUSH2 0x3A1 JUMPI DUP1 PUSH4 0xA9059CBB EQ PUSH2 0x3B4 JUMPI DUP1 PUSH4 0xA9FB763C EQ PUSH2 0x3C7 JUMPI DUP1 PUSH4 0xC3CDA520 EQ PUSH2 0x3DA JUMPI PUSH1 0x0 DUP1 REVERT JUMPDEST DUP1 PUSH4 0x7ECEBE00 GT PUSH2 0xDE JUMPI DUP1 PUSH4 0x7ECEBE00 EQ PUSH2 0x360 JUMPI DUP1 PUSH4 0x8E539E8C EQ PUSH2 0x373 JUMPI DUP1 PUSH4 0x95D89B41 EQ PUSH2 0x386 JUMPI DUP1 PUSH4 0x9AB24EB0 EQ PUSH2 0x38E JUMPI PUSH1 0x0 DUP1 REVERT JUMPDEST DUP1 PUSH4 0x6FCFFF45 EQ PUSH2 0x306 JUMPI DUP1 PUSH4 0x70A08231 EQ PUSH2 0x32E JUMPI DUP1 PUSH4 0x73D4A13A EQ PUSH2 0x357 JUMPI PUSH1 0x0 DUP1 REVERT JUMPDEST DUP1 PUSH4 0x3644E515 GT PUSH2 0x171 JUMPI DUP1 PUSH4 0x48C54B9D GT PUSH2 0x14B JUMPI DUP1 PUSH4 0x48C54B9D EQ PUSH2 0x2B7 JUMPI DUP1 PUSH4 0x4F21869C EQ PUSH2 0x2BF JUMPI DUP1 PUSH4 0x587CDE1E EQ PUSH2 0x2C7 JUMPI DUP1 PUSH4 0x5C19A95C EQ PUSH2 0x2F3 JUMPI PUSH1 0x0 DUP1 REVERT JUMPDEST DUP1 PUSH4 0x3644E515 EQ PUSH2 0x289 JUMPI DUP1 PUSH4 0x39509351 EQ PUSH2 0x291 JUMPI DUP1 PUSH4 0x3A46B1A8 EQ PUSH2 0x2A4 JUMPI PUSH1 0x0 DUP1 REVERT JUMPDEST DUP1 PUSH4 0x14F5F017 GT PUSH2 0x1AD JUMPI DUP1 PUSH4 0x14F5F017 EQ PUSH2 0x22A JUMPI DUP1 PUSH4 0x18160DDD EQ PUSH2 0x255 JUMPI DUP1 PUSH4 0x23B872DD EQ PUSH2 0x267 JUMPI DUP1 PUSH4 0x313CE567 EQ PUSH2 0x27A JUMPI PUSH1 0x0 DUP1 REVERT JUMPDEST DUP1 PUSH4 0x5AB421D EQ PUSH2 0x1D4 JUMPI DUP1 PUSH4 0x6FDDE03 EQ PUSH2 0x1E9 JUMPI DUP1 PUSH4 0x95EA7B3 EQ PUSH2 0x207 JUMPI JUMPDEST PUSH1 0x0 DUP1 REVERT JUMPDEST PUSH2 0x1E7 PUSH2 0x1E2 CALLDATASIZE PUSH1 0x4 PUSH2 0x1A86 JUMP JUMPDEST PUSH2 0x473 JUMP JUMPDEST STOP JUMPDEST PUSH2 0x1F1 PUSH2 0x493 JUMP JUMPDEST PUSH1 0x40 MLOAD PUSH2 0x1FE SWAP2 SWAP1 PUSH2 0x1AB2 JUMP JUMPDEST PUSH1 0x40 MLOAD DUP1 SWAP2 SUB SWAP1 RETURN JUMPDEST PUSH2 0x21A PUSH2 0x215 CALLDATASIZE PUSH1 0x4 PUSH2 0x1A86 JUMP JUMPDEST PUSH2 0x525 JUMP JUMPDEST PUSH1 0x40 MLOAD SWAP1 ISZERO ISZERO DUP2 MSTORE PUSH1 0x20 ADD PUSH2 0x1FE JUMP JUMPDEST PUSH2 0x23D PUSH2 0x238 CALLDATASIZE PUSH1 0x4 PUSH2 0x1B01 JUMP JUMPDEST PUSH2 0x53F JUMP JUMPDEST PUSH1 0x40 MLOAD PUSH1 0x1 PUSH1 0x1 PUSH1 0xA0 SHL SUB SWAP1 SWAP2 AND DUP2 MSTORE PUSH1 0x20 ADD PUSH2 0x1FE JUMP JUMPDEST PUSH1 0x2 SLOAD JUMPDEST PUSH1 0x40 MLOAD SWAP1 DUP2 MSTORE PUSH1 0x20 ADD PUSH2 0x1FE JUMP JUMPDEST PUSH2 0x21A PUSH2 0x275 CALLDATASIZE PUSH1 0x4 PUSH2 0x1B1A JUMP JUMPDEST PUSH2 0x569 JUMP JUMPDEST PUSH1 0x40 MLOAD PUSH1 0x12 DUP2 MSTORE PUSH1 0x20 ADD PUSH2 0x1FE JUMP JUMPDEST PUSH2 0x259 PUSH2 0x58D JUMP JUMPDEST PUSH2 0x21A PUSH2 0x29F CALLDATASIZE PUSH1 0x4 PUSH2 0x1A86 JUMP JUMPDEST PUSH2 0x59C JUMP JUMPDEST PUSH2 0x259 PUSH2 0x2B2 CALLDATASIZE PUSH1 0x4 PUSH2 0x1A86 JUMP JUMPDEST PUSH2 0x5BE JUMP JUMPDEST PUSH2 0x1E7 PUSH2 0x63D JUMP JUMPDEST PUSH1 0xC SLOAD PUSH2 0x259 JUMP JUMPDEST PUSH2 0x23D PUSH2 0x2D5 CALLDATASIZE PUSH1 0x4 PUSH2 0x1B5B JUMP JUMPDEST PUSH1 0x1 PUSH1 0x1 PUSH1 0xA0 SHL SUB SWAP1 DUP2 AND PUSH1 0x0 SWAP1 DUP2 MSTORE PUSH1 0x7 PUSH1 0x20 MSTORE PUSH1 0x40 SWAP1 KECCAK256 SLOAD AND SWAP1 JUMP JUMPDEST PUSH2 0x1E7 PUSH2 0x301 CALLDATASIZE PUSH1 0x4 PUSH2 0x1B5B JUMP JUMPDEST PUSH2 0x70E JUMP JUMPDEST PUSH2 0x319 PUSH2 0x314 CALLDATASIZE PUSH1 0x4 PUSH2 0x1B5B JUMP JUMPDEST PUSH2 0x71B JUMP JUMPDEST PUSH1 0x40 MLOAD PUSH4 0xFFFFFFFF SWAP1 SWAP2 AND DUP2 MSTORE PUSH1 0x20 ADD PUSH2 0x1FE JUMP JUMPDEST PUSH2 0x259 PUSH2 0x33C CALLDATASIZE PUSH1 0x4 PUSH2 0x1B5B JUMP JUMPDEST PUSH1 0x1 PUSH1 0x1 PUSH1 0xA0 SHL SUB AND PUSH1 0x0 SWAP1 DUP2 MSTORE PUSH1 0x20 DUP2 SWAP1 MSTORE PUSH1 0x40 SWAP1 KECCAK256 SLOAD SWAP1 JUMP JUMPDEST PUSH2 0x259 PUSH1 0xA SLOAD DUP2 JUMP JUMPDEST PUSH2 0x259 PUSH2 0x36E CALLDATASIZE PUSH1 0x4 PUSH2 0x1B5B JUMP JUMPDEST PUSH2 0x73D JUMP JUMPDEST PUSH2 0x259 PUSH2 0x381 CALLDATASIZE PUSH1 0x4 PUSH2 0x1B01 JUMP JUMPDEST PUSH2 0x75B JUMP JUMPDEST PUSH2 0x1F1 PUSH2 0x7B7 JUMP JUMPDEST PUSH2 0x259 PUSH2 0x39C CALLDATASIZE PUSH1 0x4 PUSH2 0x1B5B JUMP JUMPDEST PUSH2 0x7C6 JUMP JUMPDEST PUSH2 0x21A PUSH2 0x3AF CALLDATASIZE PUSH1 0x4 PUSH2 0x1A86 JUMP JUMPDEST PUSH2 0x84D JUMP JUMPDEST PUSH2 0x21A PUSH2 0x3C2 CALLDATASIZE PUSH1 0x4 PUSH2 0x1A86 JUMP JUMPDEST PUSH2 0x8C8 JUMP JUMPDEST PUSH2 0x1E7 PUSH2 0x3D5 CALLDATASIZE PUSH1 0x4 PUSH2 0x1B01 JUMP JUMPDEST PUSH2 0x8D6 JUMP JUMPDEST PUSH2 0x1E7 PUSH2 0x3E8 CALLDATASIZE PUSH1 0x4 PUSH2 0x1B8E JUMP JUMPDEST PUSH2 0x8ED JUMP JUMPDEST PUSH2 0x1E7 PUSH2 0x3FB CALLDATASIZE PUSH1 0x4 PUSH2 0x1BE8 JUMP JUMPDEST PUSH2 0xA23 JUMP JUMPDEST PUSH2 0x259 PUSH2 0x40E CALLDATASIZE PUSH1 0x4 PUSH2 0x1C56 JUMP JUMPDEST PUSH2 0xB87 JUMP JUMPDEST PUSH2 0x426 PUSH2 0x421 CALLDATASIZE PUSH1 0x4 PUSH2 0x1C8F JUMP JUMPDEST PUSH2 0xBB2 JUMP JUMPDEST PUSH1 0x40 DUP1 MLOAD DUP3 MLOAD PUSH4 0xFFFFFFFF AND DUP2 MSTORE PUSH1 0x20 SWAP3 DUP4 ADD MLOAD PUSH1 0x1 PUSH1 0x1 PUSH1 0xE0 SHL SUB AND SWAP3 DUP2 ADD SWAP3 SWAP1 SWAP3 MSTORE ADD PUSH2 0x1FE JUMP JUMPDEST PUSH2 0x21A PUSH2 0x45E CALLDATASIZE PUSH1 0x4 PUSH2 0x1B5B JUMP JUMPDEST PUSH1 0xB PUSH1 0x20 MSTORE PUSH1 0x0 SWAP1 DUP2 MSTORE PUSH1 0x40 SWAP1 KECCAK256 SLOAD PUSH1 0xFF AND DUP2 JUMP JUMPDEST PUSH2 0x48F ADDRESS DUP4 PUSH2 0x48A DUP5 PUSH8 0xDE0B6B3A7640000 PUSH2 0x1CDC JUMP JUMPDEST PUSH2 0xC4E JUMP JUMPDEST POP POP JUMP JUMPDEST PUSH1 0x60 PUSH1 0x3 DUP1 SLOAD PUSH2 0x4A2 SWAP1 PUSH2 0x1CF3 JUMP JUMPDEST DUP1 PUSH1 0x1F ADD PUSH1 0x20 DUP1 SWAP2 DIV MUL PUSH1 0x20 ADD PUSH1 0x40 MLOAD SWAP1 DUP2 ADD PUSH1 0x40 MSTORE DUP1 SWAP3 SWAP2 SWAP1 DUP2 DUP2 MSTORE PUSH1 0x20 ADD DUP3 DUP1 SLOAD PUSH2 0x4CE SWAP1 PUSH2 0x1CF3 JUMP JUMPDEST DUP1 ISZERO PUSH2 0x51B JUMPI DUP1 PUSH1 0x1F LT PUSH2 0x4F0 JUMPI PUSH2 0x100 DUP1 DUP4 SLOAD DIV MUL DUP4 MSTORE SWAP2 PUSH1 0x20 ADD SWAP2 PUSH2 0x51B JUMP JUMPDEST DUP3 ADD SWAP2 SWAP1 PUSH1 0x0 MSTORE PUSH1 0x20 PUSH1 0x0 KECCAK256 SWAP1 JUMPDEST DUP2 SLOAD DUP2 MSTORE SWAP1 PUSH1 0x1 ADD SWAP1 PUSH1 0x20 ADD DUP1 DUP4 GT PUSH2 0x4FE JUMPI DUP3 SWAP1 SUB PUSH1 0x1F AND DUP3 ADD SWAP2 JUMPDEST POP POP POP POP POP SWAP1 POP SWAP1 JUMP JUMPDEST PUSH1 0x0 CALLER PUSH2 0x533 DUP2 DUP6 DUP6 PUSH2 0xDFE JUMP JUMPDEST PUSH1 0x1 SWAP2 POP POP JUMPDEST SWAP3 SWAP2 POP POP JUMP JUMPDEST PUSH1 0xC DUP2 DUP2 SLOAD DUP2 LT PUSH2 0x54F JUMPI PUSH1 0x0 DUP1 REVERT JUMPDEST PUSH1 0x0 SWAP2 DUP3 MSTORE PUSH1 0x20 SWAP1 SWAP2 KECCAK256 ADD SLOAD PUSH1 0x1 PUSH1 0x1 PUSH1 0xA0 SHL SUB AND SWAP1 POP DUP2 JUMP JUMPDEST PUSH1 0x0 CALLER PUSH2 0x577 DUP6 DUP3 DUP6 PUSH2 0xF23 JUMP JUMPDEST PUSH2 0x582 DUP6 DUP6 DUP6 PUSH2 0xC4E JUMP JUMPDEST POP PUSH1 0x1 SWAP5 SWAP4 POP POP POP POP JUMP JUMPDEST PUSH1 0x0 PUSH2 0x597 PUSH2 0xF97 JUMP JUMPDEST SWAP1 POP SWAP1 JUMP JUMPDEST PUSH1 0x0 CALLER PUSH2 0x533 DUP2 DUP6 DUP6 PUSH2 0x5AF DUP4 DUP4 PUSH2 0xB87 JUMP JUMPDEST PUSH2 0x5B9 SWAP2 SWAP1 PUSH2 0x1D27 JUMP JUMPDEST PUSH2 0xDFE JUMP JUMPDEST PUSH1 0x0 NUMBER DUP3 LT PUSH2 0x614 JUMPI PUSH1 0x40 MLOAD PUSH3 0x461BCD PUSH1 0xE5 SHL DUP2 MSTORE PUSH1 0x20 PUSH1 0x4 DUP3 ADD MSTORE PUSH1 0x1F PUSH1 0x24 DUP3 ADD MSTORE PUSH32 0x4552433230566F7465733A20626C6F636B206E6F7420796574206D696E656400 PUSH1 0x44 DUP3 ADD MSTORE PUSH1 0x64 ADD JUMPDEST PUSH1 0x40 MLOAD DUP1 SWAP2 SUB SWAP1 REVERT JUMPDEST PUSH1 0x1 PUSH1 0x1 PUSH1 0xA0 SHL SUB DUP4 AND PUSH1 0x0 SWAP1 DUP2 MSTORE PUSH1 0x8 PUSH1 0x20 MSTORE PUSH1 0x40 SWAP1 KECCAK256 PUSH2 0x636 SWAP1 DUP4 PUSH2 0x10BE JUMP JUMPDEST SWAP4 SWAP3 POP POP POP JUMP JUMPDEST CALLER PUSH1 0x0 SWAP1 DUP2 MSTORE PUSH1 0xB PUSH1 0x20 MSTORE PUSH1 0x40 SWAP1 KECCAK256 SLOAD PUSH1 0xFF AND ISZERO PUSH2 0x696 JUMPI PUSH1 0x40 MLOAD PUSH3 0x461BCD PUSH1 0xE5 SHL DUP2 MSTORE PUSH1 0x20 PUSH1 0x4 DUP3 ADD MSTORE PUSH1 0x16 PUSH1 0x24 DUP3 ADD MSTORE PUSH22 0x416C726561647920636C61696D656420746F6B656E73 PUSH1 0x50 SHL PUSH1 0x44 DUP3 ADD MSTORE PUSH1 0x64 ADD PUSH2 0x60B JUMP JUMPDEST CALLER PUSH1 0x0 DUP2 DUP2 MSTORE PUSH1 0xB PUSH1 0x20 MSTORE PUSH1 0x40 SWAP1 KECCAK256 DUP1 SLOAD PUSH1 0xFF NOT AND PUSH1 0x1 OR SWAP1 SSTORE PUSH2 0x6CA SWAP1 ADDRESS SWAP1 PUSH2 0x48A PUSH2 0x7D0 PUSH8 0xDE0B6B3A7640000 PUSH2 0x1CDC JUMP JUMPDEST PUSH1 0xC DUP1 SLOAD PUSH1 0x1 DUP2 ADD DUP3 SSTORE PUSH1 0x0 SWAP2 SWAP1 SWAP2 MSTORE PUSH32 0xDF6966C971051C3D54EC59162606531493A51404A002842F56009D7E5CF4A8C7 ADD DUP1 SLOAD PUSH1 0x1 PUSH1 0x1 PUSH1 0xA0 SHL SUB NOT AND CALLER OR SWAP1 SSTORE JUMP JUMPDEST PUSH2 0x718 CALLER DUP3 PUSH2 0x11B5 JUMP JUMPDEST POP JUMP JUMPDEST PUSH1 0x1 PUSH1 0x1 PUSH1 0xA0 SHL SUB DUP2 AND PUSH1 0x0 SWAP1 DUP2 MSTORE PUSH1 0x8 PUSH1 0x20 MSTORE PUSH1 0x40 DUP2 KECCAK256 SLOAD PUSH2 0x539 SWAP1 PUSH2 0x122E JUMP JUMPDEST PUSH1 0x1 PUSH1 0x1 PUSH1 0xA0 SHL SUB DUP2 AND PUSH1 0x0 SWAP1 DUP2 MSTORE PUSH1 0x5 PUSH1 0x20 MSTORE PUSH1 0x40 DUP2 KECCAK256 SLOAD PUSH2 0x539 JUMP JUMPDEST PUSH1 0x0 NUMBER DUP3 LT PUSH2 0x7AC JUMPI PUSH1 0x40 MLOAD PUSH3 0x461BCD PUSH1 0xE5 SHL DUP2 MSTORE PUSH1 0x20 PUSH1 0x4 DUP3 ADD MSTORE PUSH1 0x1F PUSH1 0x24 DUP3 ADD MSTORE PUSH32 0x4552433230566F7465733A20626C6F636B206E6F7420796574206D696E656400 PUSH1 0x44 DUP3 ADD MSTORE PUSH1 0x64 ADD PUSH2 0x60B JUMP JUMPDEST PUSH2 0x539 PUSH1 0x9 DUP4 PUSH2 0x10BE JUMP JUMPDEST PUSH1 0x60 PUSH1 0x4 DUP1 SLOAD PUSH2 0x4A2 SWAP1 PUSH2 0x1CF3 JUMP JUMPDEST PUSH1 0x1 PUSH1 0x1 PUSH1 0xA0 SHL SUB DUP2 AND PUSH1 0x0 SWAP1 DUP2 MSTORE PUSH1 0x8 PUSH1 0x20 MSTORE PUSH1 0x40 DUP2 KECCAK256 SLOAD DUP1 ISZERO PUSH2 0x83A JUMPI PUSH1 0x1 PUSH1 0x1 PUSH1 0xA0 SHL SUB DUP4 AND PUSH1 0x0 SWAP1 DUP2 MSTORE PUSH1 0x8 PUSH1 0x20 MSTORE PUSH1 0x40 SWAP1 KECCAK256 PUSH2 0x808 PUSH1 0x1 DUP4 PUSH2 0x1D3A JUMP JUMPDEST DUP2 SLOAD DUP2 LT PUSH2 0x818 JUMPI PUSH2 0x818 PUSH2 0x1D4D JUMP JUMPDEST PUSH1 0x0 SWAP2 DUP3 MSTORE PUSH1 0x20 SWAP1 SWAP2 KECCAK256 ADD SLOAD PUSH5 0x100000000 SWAP1 DIV PUSH1 0x1 PUSH1 0x1 PUSH1 0xE0 SHL SUB AND PUSH2 0x83D JUMP JUMPDEST PUSH1 0x0 JUMPDEST PUSH1 0x1 PUSH1 0x1 PUSH1 0xE0 SHL SUB AND SWAP4 SWAP3 POP POP POP JUMP JUMPDEST PUSH1 0x0 CALLER DUP2 PUSH2 0x85B DUP3 DUP7 PUSH2 0xB87 JUMP JUMPDEST SWAP1 POP DUP4 DUP2 LT ISZERO PUSH2 0x8BB JUMPI PUSH1 0x40 MLOAD PUSH3 0x461BCD PUSH1 0xE5 SHL DUP2 MSTORE PUSH1 0x20 PUSH1 0x4 DUP3 ADD MSTORE PUSH1 0x25 PUSH1 0x24 DUP3 ADD MSTORE PUSH32 0x45524332303A2064656372656173656420616C6C6F77616E63652062656C6F77 PUSH1 0x44 DUP3 ADD MSTORE PUSH5 0x207A65726F PUSH1 0xD8 SHL PUSH1 0x64 DUP3 ADD MSTORE PUSH1 0x84 ADD PUSH2 0x60B JUMP JUMPDEST PUSH2 0x582 DUP3 DUP7 DUP7 DUP5 SUB PUSH2 0xDFE JUMP JUMPDEST PUSH1 0x0 CALLER PUSH2 0x533 DUP2 DUP6 DUP6 PUSH2 0xC4E JUMP JUMPDEST PUSH2 0x718 ADDRESS CALLER PUSH2 0x48A DUP5 PUSH8 0xDE0B6B3A7640000 PUSH2 0x1CDC JUMP JUMPDEST DUP4 TIMESTAMP GT ISZERO PUSH2 0x93D JUMPI PUSH1 0x40 MLOAD PUSH3 0x461BCD PUSH1 0xE5 SHL DUP2 MSTORE PUSH1 0x20 PUSH1 0x4 DUP3 ADD MSTORE PUSH1 0x1D PUSH1 0x24 DUP3 ADD MSTORE PUSH32 0x4552433230566F7465733A207369676E61747572652065787069726564000000 PUSH1 0x44 DUP3 ADD MSTORE PUSH1 0x64 ADD PUSH2 0x60B JUMP JUMPDEST PUSH1 0x40 DUP1 MLOAD PUSH32 0xE48329057BFD03D55E49B547132E39CFFD9C1820AD7B9D4C5307691425D15ADF PUSH1 0x20 DUP3 ADD MSTORE PUSH1 0x1 PUSH1 0x1 PUSH1 0xA0 SHL SUB DUP9 AND SWAP2 DUP2 ADD SWAP2 SWAP1 SWAP2 MSTORE PUSH1 0x60 DUP2 ADD DUP7 SWAP1 MSTORE PUSH1 0x80 DUP2 ADD DUP6 SWAP1 MSTORE PUSH1 0x0 SWAP1 PUSH2 0x9B7 SWAP1 PUSH2 0x9AF SWAP1 PUSH1 0xA0 ADD PUSH1 0x40 MLOAD PUSH1 0x20 DUP2 DUP4 SUB SUB DUP2 MSTORE SWAP1 PUSH1 0x40 MSTORE DUP1 MLOAD SWAP1 PUSH1 0x20 ADD KECCAK256 PUSH2 0x1297 JUMP JUMPDEST DUP6 DUP6 DUP6 PUSH2 0x12E5 JUMP JUMPDEST SWAP1 POP PUSH2 0x9C2 DUP2 PUSH2 0x130D JUMP JUMPDEST DUP7 EQ PUSH2 0xA10 JUMPI PUSH1 0x40 MLOAD PUSH3 0x461BCD PUSH1 0xE5 SHL DUP2 MSTORE PUSH1 0x20 PUSH1 0x4 DUP3 ADD MSTORE PUSH1 0x19 PUSH1 0x24 DUP3 ADD MSTORE PUSH32 0x4552433230566F7465733A20696E76616C6964206E6F6E636500000000000000 PUSH1 0x44 DUP3 ADD MSTORE PUSH1 0x64 ADD PUSH2 0x60B JUMP JUMPDEST PUSH2 0xA1A DUP2 DUP9 PUSH2 0x11B5 JUMP JUMPDEST POP POP POP POP POP POP POP JUMP JUMPDEST DUP4 TIMESTAMP GT ISZERO PUSH2 0xA73 JUMPI PUSH1 0x40 MLOAD PUSH3 0x461BCD PUSH1 0xE5 SHL DUP2 MSTORE PUSH1 0x20 PUSH1 0x4 DUP3 ADD MSTORE PUSH1 0x1D PUSH1 0x24 DUP3 ADD MSTORE PUSH32 0x45524332305065726D69743A206578706972656420646561646C696E65000000 PUSH1 0x44 DUP3 ADD MSTORE PUSH1 0x64 ADD PUSH2 0x60B JUMP JUMPDEST PUSH1 0x0 PUSH32 0x6E71EDAE12B1B97F4D1F60370FEF10105FA2FAAE0126114A169C64845D6126C9 DUP9 DUP9 DUP9 PUSH2 0xAA2 DUP13 PUSH2 0x130D JUMP JUMPDEST PUSH1 0x40 DUP1 MLOAD PUSH1 0x20 DUP2 ADD SWAP7 SWAP1 SWAP7 MSTORE PUSH1 0x1 PUSH1 0x1 PUSH1 0xA0 SHL SUB SWAP5 DUP6 AND SWAP1 DUP7 ADD MSTORE SWAP3 SWAP1 SWAP2 AND PUSH1 0x60 DUP5 ADD MSTORE PUSH1 0x80 DUP4 ADD MSTORE PUSH1 0xA0 DUP3 ADD MSTORE PUSH1 0xC0 DUP2 ADD DUP7 SWAP1 MSTORE PUSH1 0xE0 ADD PUSH1 0x40 MLOAD PUSH1 0x20 DUP2 DUP4 SUB SUB DUP2 MSTORE SWAP1 PUSH1 0x40 MSTORE DUP1 MLOAD SWAP1 PUSH1 0x20 ADD KECCAK256 SWAP1 POP PUSH1 0x0 PUSH2 0xAFD DUP3 PUSH2 0x1297 JUMP JUMPDEST SWAP1 POP PUSH1 0x0 PUSH2 0xB0D DUP3 DUP8 DUP8 DUP8 PUSH2 0x12E5 JUMP JUMPDEST SWAP1 POP DUP10 PUSH1 0x1 PUSH1 0x1 PUSH1 0xA0 SHL SUB AND DUP2 PUSH1 0x1 PUSH1 0x1 PUSH1 0xA0 SHL SUB AND EQ PUSH2 0xB70 JUMPI PUSH1 0x40 MLOAD PUSH3 0x461BCD PUSH1 0xE5 SHL DUP2 MSTORE PUSH1 0x20 PUSH1 0x4 DUP3 ADD MSTORE PUSH1 0x1E PUSH1 0x24 DUP3 ADD MSTORE PUSH32 0x45524332305065726D69743A20696E76616C6964207369676E61747572650000 PUSH1 0x44 DUP3 ADD MSTORE PUSH1 0x64 ADD PUSH2 0x60B JUMP JUMPDEST PUSH2 0xB7B DUP11 DUP11 DUP11 PUSH2 0xDFE JUMP JUMPDEST POP POP POP POP POP POP POP POP POP POP JUMP JUMPDEST PUSH1 0x1 PUSH1 0x1 PUSH1 0xA0 SHL SUB SWAP2 DUP3 AND PUSH1 0x0 SWAP1 DUP2 MSTORE PUSH1 0x1 PUSH1 0x20 SWAP1 DUP2 MSTORE PUSH1 0x40 DUP1 DUP4 KECCAK256 SWAP4 SWAP1 SWAP5 AND DUP3 MSTORE SWAP2 SWAP1 SWAP2 MSTORE KECCAK256 SLOAD SWAP1 JUMP JUMPDEST PUSH1 0x40 DUP1 MLOAD DUP1 DUP3 ADD SWAP1 SWAP2 MSTORE PUSH1 0x0 DUP1 DUP3 MSTORE PUSH1 0x20 DUP3 ADD MSTORE PUSH1 0x1 PUSH1 0x1 PUSH1 0xA0 SHL SUB DUP4 AND PUSH1 0x0 SWAP1 DUP2 MSTORE PUSH1 0x8 PUSH1 0x20 MSTORE PUSH1 0x40 SWAP1 KECCAK256 DUP1 SLOAD PUSH4 0xFFFFFFFF DUP5 AND SWAP1 DUP2 LT PUSH2 0xBF6 JUMPI PUSH2 0xBF6 PUSH2 0x1D4D JUMP JUMPDEST PUSH1 0x0 SWAP2 DUP3 MSTORE PUSH1 0x20 SWAP2 DUP3 SWAP1 KECCAK256 PUSH1 0x40 DUP1 MLOAD DUP1 DUP3 ADD SWAP1 SWAP2 MSTORE SWAP2 ADD SLOAD PUSH4 0xFFFFFFFF DUP2 AND DUP3 MSTORE PUSH5 0x100000000 SWAP1 DIV PUSH1 0x1 PUSH1 0x1 PUSH1 0xE0 SHL SUB AND SWAP2 DUP2 ADD SWAP2 SWAP1 SWAP2 MSTORE SWAP4 SWAP3 POP POP POP JUMP JUMPDEST PUSH1 0x0 PUSH2 0x636 DUP3 DUP5 PUSH2 0x1D27 JUMP JUMPDEST PUSH1 0x0 PUSH2 0x636 DUP3 DUP5 PUSH2 0x1D3A JUMP JUMPDEST PUSH1 0x1 PUSH1 0x1 PUSH1 0xA0 SHL SUB DUP4 AND PUSH2 0xCB2 JUMPI PUSH1 0x40 MLOAD PUSH3 0x461BCD PUSH1 0xE5 SHL DUP2 MSTORE PUSH1 0x20 PUSH1 0x4 DUP3 ADD MSTORE PUSH1 0x25 PUSH1 0x24 DUP3 ADD MSTORE PUSH32 0x45524332303A207472616E736665722066726F6D20746865207A65726F206164 PUSH1 0x44 DUP3 ADD MSTORE PUSH5 0x6472657373 PUSH1 0xD8 SHL PUSH1 0x64 DUP3 ADD MSTORE PUSH1 0x84 ADD PUSH2 0x60B JUMP JUMPDEST PUSH1 0x1 PUSH1 0x1 PUSH1 0xA0 SHL SUB DUP3 AND PUSH2 0xD14 JUMPI PUSH1 0x40 MLOAD PUSH3 0x461BCD PUSH1 0xE5 SHL DUP2 MSTORE PUSH1 0x20 PUSH1 0x4 DUP3 ADD MSTORE PUSH1 0x23 PUSH1 0x24 DUP3 ADD MSTORE PUSH32 0x45524332303A207472616E7366657220746F20746865207A65726F2061646472 PUSH1 0x44 DUP3 ADD MSTORE PUSH3 0x657373 PUSH1 0xE8 SHL PUSH1 0x64 DUP3 ADD MSTORE PUSH1 0x84 ADD PUSH2 0x60B JUMP JUMPDEST PUSH1 0x1 PUSH1 0x1 PUSH1 0xA0 SHL SUB DUP4 AND PUSH1 0x0 SWAP1 DUP2 MSTORE PUSH1 0x20 DUP2 SWAP1 MSTORE PUSH1 0x40 SWAP1 KECCAK256 SLOAD DUP2 DUP2 LT ISZERO PUSH2 0xD8C JUMPI PUSH1 0x40 MLOAD PUSH3 0x461BCD PUSH1 0xE5 SHL DUP2 MSTORE PUSH1 0x20 PUSH1 0x4 DUP3 ADD MSTORE PUSH1 0x26 PUSH1 0x24 DUP3 ADD MSTORE PUSH32 0x45524332303A207472616E7366657220616D6F756E7420657863656564732062 PUSH1 0x44 DUP3 ADD MSTORE PUSH6 0x616C616E6365 PUSH1 0xD0 SHL PUSH1 0x64 DUP3 ADD MSTORE PUSH1 0x84 ADD PUSH2 0x60B JUMP JUMPDEST PUSH1 0x1 PUSH1 0x1 PUSH1 0xA0 SHL SUB DUP5 DUP2 AND PUSH1 0x0 DUP2 DUP2 MSTORE PUSH1 0x20 DUP2 DUP2 MSTORE PUSH1 0x40 DUP1 DUP4 KECCAK256 DUP8 DUP8 SUB SWAP1 SSTORE SWAP4 DUP8 AND DUP1 DUP4 MSTORE SWAP2 DUP5 SWAP1 KECCAK256 DUP1 SLOAD DUP8 ADD SWAP1 SSTORE SWAP3 MLOAD DUP6 DUP2 MSTORE SWAP1 SWAP3 PUSH32 0xDDF252AD1BE2C89B69C2B068FC378DAA952BA7F163C4A11628F55A4DF523B3EF SWAP2 ADD PUSH1 0x40 MLOAD DUP1 SWAP2 SUB SWAP1 LOG3 PUSH2 0xDF8 DUP5 DUP5 DUP5 PUSH2 0x133A JUMP JUMPDEST POP POP POP POP JUMP JUMPDEST PUSH1 0x1 PUSH1 0x1 PUSH1 0xA0 SHL SUB DUP4 AND PUSH2 0xE60 JUMPI PUSH1 0x40 MLOAD PUSH3 0x461BCD PUSH1 0xE5 SHL DUP2 MSTORE PUSH1 0x20 PUSH1 0x4 DUP3 ADD MSTORE PUSH1 0x24 DUP1 DUP3 ADD MSTORE PUSH32 0x45524332303A20617070726F76652066726F6D20746865207A65726F20616464 PUSH1 0x44 DUP3 ADD MSTORE PUSH4 0x72657373 PUSH1 0xE0 SHL PUSH1 0x64 DUP3 ADD MSTORE PUSH1 0x84 ADD PUSH2 0x60B JUMP JUMPDEST PUSH1 0x1 PUSH1 0x1 PUSH1 0xA0 SHL SUB DUP3 AND PUSH2 0xEC1 JUMPI PUSH1 0x40 MLOAD PUSH3 0x461BCD PUSH1 0xE5 SHL DUP2 MSTORE PUSH1 0x20 PUSH1 0x4 DUP3 ADD MSTORE PUSH1 0x22 PUSH1 0x24 DUP3 ADD MSTORE PUSH32 0x45524332303A20617070726F766520746F20746865207A65726F206164647265 PUSH1 0x44 DUP3 ADD MSTORE PUSH2 0x7373 PUSH1 0xF0 SHL PUSH1 0x64 DUP3 ADD MSTORE PUSH1 0x84 ADD PUSH2 0x60B JUMP JUMPDEST PUSH1 0x1 PUSH1 0x1 PUSH1 0xA0 SHL SUB DUP4 DUP2 AND PUSH1 0x0 DUP2 DUP2 MSTORE PUSH1 0x1 PUSH1 0x20 SWAP1 DUP2 MSTORE PUSH1 0x40 DUP1 DUP4 KECCAK256 SWAP5 DUP8 AND DUP1 DUP5 MSTORE SWAP5 DUP3 MSTORE SWAP2 DUP3 SWAP1 KECCAK256 DUP6 SWAP1 SSTORE SWAP1 MLOAD DUP5 DUP2 MSTORE PUSH32 0x8C5BE1E5EBEC7D5BD14F71427D1E84F3DD0314C0F7B2291E5B200AC8C7C3B925 SWAP2 ADD JUMPDEST PUSH1 0x40 MLOAD DUP1 SWAP2 SUB SWAP1 LOG3 POP POP POP JUMP JUMPDEST PUSH1 0x0 PUSH2 0xF2F DUP5 DUP5 PUSH2 0xB87 JUMP JUMPDEST SWAP1 POP PUSH1 0x0 NOT DUP2 EQ PUSH2 0xDF8 JUMPI DUP2 DUP2 LT ISZERO PUSH2 0xF8A JUMPI PUSH1 0x40 MLOAD PUSH3 0x461BCD PUSH1 0xE5 SHL DUP2 MSTORE PUSH1 0x20 PUSH1 0x4 DUP3 ADD MSTORE PUSH1 0x1D PUSH1 0x24 DUP3 ADD MSTORE PUSH32 0x45524332303A20696E73756666696369656E7420616C6C6F77616E6365000000 PUSH1 0x44 DUP3 ADD MSTORE PUSH1 0x64 ADD PUSH2 0x60B JUMP JUMPDEST PUSH2 0xDF8 DUP5 DUP5 DUP5 DUP5 SUB PUSH2 0xDFE JUMP JUMPDEST PUSH1 0x0 ADDRESS PUSH1 0x1 PUSH1 0x1 PUSH1 0xA0 SHL SUB PUSH32 0x0 AND EQ DUP1 ISZERO PUSH2 0xFF0 JUMPI POP PUSH32 0x0 CHAINID EQ JUMPDEST ISZERO PUSH2 0x101A JUMPI POP PUSH32 0x0 SWAP1 JUMP JUMPDEST POP PUSH1 0x40 DUP1 MLOAD PUSH32 0x0 PUSH1 0x20 DUP1 DUP4 ADD SWAP2 SWAP1 SWAP2 MSTORE PUSH32 0x0 DUP3 DUP5 ADD MSTORE PUSH32 0x0 PUSH1 0x60 DUP4 ADD MSTORE CHAINID PUSH1 0x80 DUP4 ADD MSTORE ADDRESS PUSH1 0xA0 DUP1 DUP5 ADD SWAP2 SWAP1 SWAP2 MSTORE DUP4 MLOAD DUP1 DUP5 SUB SWAP1 SWAP2 ADD DUP2 MSTORE PUSH1 0xC0 SWAP1 SWAP3 ADD SWAP1 SWAP3 MSTORE DUP1 MLOAD SWAP2 ADD KECCAK256 SWAP1 JUMP JUMPDEST DUP2 SLOAD PUSH1 0x0 SWAP1 DUP2 DUP2 PUSH1 0x5 DUP2 GT ISZERO PUSH2 0x1118 JUMPI PUSH1 0x0 PUSH2 0x10D9 DUP5 PUSH2 0x138A JUMP JUMPDEST PUSH2 0x10E3 SWAP1 DUP6 PUSH2 0x1D3A JUMP JUMPDEST PUSH1 0x0 DUP9 DUP2 MSTORE PUSH1 0x20 SWAP1 KECCAK256 SWAP1 SWAP2 POP DUP7 SWAP1 DUP3 ADD SLOAD PUSH4 0xFFFFFFFF AND GT ISZERO PUSH2 0x1108 JUMPI DUP1 SWAP2 POP PUSH2 0x1116 JUMP JUMPDEST PUSH2 0x1113 DUP2 PUSH1 0x1 PUSH2 0x1D27 JUMP JUMPDEST SWAP3 POP JUMPDEST POP JUMPDEST DUP1 DUP3 LT ISZERO PUSH2 0x1165 JUMPI PUSH1 0x0 PUSH2 0x112C DUP4 DUP4 PUSH2 0x1472 JUMP JUMPDEST PUSH1 0x0 DUP9 DUP2 MSTORE PUSH1 0x20 SWAP1 KECCAK256 SWAP1 SWAP2 POP DUP7 SWAP1 DUP3 ADD SLOAD PUSH4 0xFFFFFFFF AND GT ISZERO PUSH2 0x1151 JUMPI DUP1 SWAP2 POP PUSH2 0x115F JUMP JUMPDEST PUSH2 0x115C DUP2 PUSH1 0x1 PUSH2 0x1D27 JUMP JUMPDEST SWAP3 POP JUMPDEST POP PUSH2 0x1118 JUMP JUMPDEST DUP1 ISZERO PUSH2 0x119F JUMPI PUSH2 0x1188 DUP7 PUSH2 0x117A PUSH1 0x1 DUP5 PUSH2 0x1D3A JUMP JUMPDEST PUSH1 0x0 SWAP2 DUP3 MSTORE PUSH1 0x20 SWAP1 SWAP2 KECCAK256 ADD SWAP1 JUMP JUMPDEST SLOAD PUSH5 0x100000000 SWAP1 DIV PUSH1 0x1 PUSH1 0x1 PUSH1 0xE0 SHL SUB AND PUSH2 0x11A2 JUMP JUMPDEST PUSH1 0x0 JUMPDEST PUSH1 0x1 PUSH1 0x1 PUSH1 0xE0 SHL SUB AND SWAP7 SWAP6 POP POP POP POP POP POP JUMP JUMPDEST PUSH1 0x1 PUSH1 0x1 PUSH1 0xA0 SHL SUB DUP3 DUP2 AND PUSH1 0x0 DUP2 DUP2 MSTORE PUSH1 0x7 PUSH1 0x20 DUP2 DUP2 MSTORE PUSH1 0x40 DUP1 DUP5 KECCAK256 DUP1 SLOAD DUP6 DUP5 MSTORE DUP3 DUP7 KECCAK256 SLOAD SWAP5 SWAP1 SWAP4 MSTORE DUP8 DUP8 AND PUSH1 0x1 PUSH1 0x1 PUSH1 0xA0 SHL SUB NOT DUP5 AND DUP2 OR SWAP1 SWAP2 SSTORE SWAP1 MLOAD SWAP2 SWAP1 SWAP6 AND SWAP5 SWAP2 SWAP4 SWAP2 SWAP3 DUP6 SWAP3 SWAP2 PUSH32 0x3134E8A2E6D97E929A7E54011EA5485D7D196DD5F0BA4D4EF95803E8E3FC257F SWAP2 SWAP1 LOG4 PUSH2 0xDF8 DUP3 DUP5 DUP4 PUSH2 0x148D JUMP JUMPDEST PUSH1 0x0 PUSH4 0xFFFFFFFF DUP3 GT ISZERO PUSH2 0x1293 JUMPI PUSH1 0x40 MLOAD PUSH3 0x461BCD PUSH1 0xE5 SHL DUP2 MSTORE PUSH1 0x20 PUSH1 0x4 DUP3 ADD MSTORE PUSH1 0x26 PUSH1 0x24 DUP3 ADD MSTORE PUSH32 0x53616665436173743A2076616C756520646F65736E27742066697420696E2033 PUSH1 0x44 DUP3 ADD MSTORE PUSH6 0x322062697473 PUSH1 0xD0 SHL PUSH1 0x64 DUP3 ADD MSTORE PUSH1 0x84 ADD PUSH2 0x60B JUMP JUMPDEST POP SWAP1 JUMP JUMPDEST PUSH1 0x0 PUSH2 0x539 PUSH2 0x12A4 PUSH2 0xF97 JUMP JUMPDEST DUP4 PUSH1 0x40 MLOAD PUSH2 0x1901 PUSH1 0xF0 SHL PUSH1 0x20 DUP3 ADD MSTORE PUSH1 0x22 DUP2 ADD DUP4 SWAP1 MSTORE PUSH1 0x42 DUP2 ADD DUP3 SWAP1 MSTORE PUSH1 0x0 SWAP1 PUSH1 0x62 ADD PUSH1 0x40 MLOAD PUSH1 0x20 DUP2 DUP4 SUB SUB DUP2 MSTORE SWAP1 PUSH1 0x40 MSTORE DUP1 MLOAD SWAP1 PUSH1 0x20 ADD KECCAK256 SWAP1 POP SWAP3 SWAP2 POP POP JUMP JUMPDEST PUSH1 0x0 DUP1 PUSH1 0x0 PUSH2 0x12F6 DUP8 DUP8 DUP8 DUP8 PUSH2 0x15CA JUMP JUMPDEST SWAP2 POP SWAP2 POP PUSH2 0x1303 DUP2 PUSH2 0x168E JUMP JUMPDEST POP SWAP6 SWAP5 POP POP POP POP POP JUMP JUMPDEST PUSH1 0x1 PUSH1 0x1 PUSH1 0xA0 SHL SUB DUP2 AND PUSH1 0x0 SWAP1 DUP2 MSTORE PUSH1 0x5 PUSH1 0x20 MSTORE PUSH1 0x40 SWAP1 KECCAK256 DUP1 SLOAD PUSH1 0x1 DUP2 ADD DUP3 SSTORE SWAP1 JUMPDEST POP SWAP2 SWAP1 POP JUMP JUMPDEST POP POP POP JUMP JUMPDEST PUSH2 0x1345 DUP4 DUP4 DUP4 PUSH2 0x17D8 JUMP JUMPDEST DUP2 PUSH1 0x1 PUSH1 0x1 PUSH1 0xA0 SHL SUB AND DUP4 PUSH1 0x1 PUSH1 0x1 PUSH1 0xA0 SHL SUB AND PUSH32 0xEC61728879A33AA50B55E1F4789DCFC1C680F30A24D7B8694A9F874E242A97B4 DUP4 PUSH1 0x40 MLOAD PUSH2 0xF16 SWAP2 DUP2 MSTORE PUSH1 0x20 ADD SWAP1 JUMP JUMPDEST PUSH1 0x0 DUP2 PUSH1 0x0 SUB PUSH2 0x139C JUMPI POP PUSH1 0x0 SWAP2 SWAP1 POP JUMP JUMPDEST PUSH1 0x0 PUSH1 0x1 PUSH2 0x13A9 DUP5 PUSH2 0x180A JUMP JUMPDEST SWAP1 SHR PUSH1 0x1 SWAP1 SHL SWAP1 POP PUSH1 0x1 DUP2 DUP5 DUP2 PUSH2 0x13C2 JUMPI PUSH2 0x13C2 PUSH2 0x1D63 JUMP JUMPDEST DIV DUP3 ADD SWAP1 SHR SWAP1 POP PUSH1 0x1 DUP2 DUP5 DUP2 PUSH2 0x13DA JUMPI PUSH2 0x13DA PUSH2 0x1D63 JUMP JUMPDEST DIV DUP3 ADD SWAP1 SHR SWAP1 POP PUSH1 0x1 DUP2 DUP5 DUP2 PUSH2 0x13F2 JUMPI PUSH2 0x13F2 PUSH2 0x1D63 JUMP JUMPDEST DIV DUP3 ADD SWAP1 SHR SWAP1 POP PUSH1 0x1 DUP2 DUP5 DUP2 PUSH2 0x140A JUMPI PUSH2 0x140A PUSH2 0x1D63 JUMP JUMPDEST DIV DUP3 ADD SWAP1 SHR SWAP1 POP PUSH1 0x1 DUP2 DUP5 DUP2 PUSH2 0x1422 JUMPI PUSH2 0x1422 PUSH2 0x1D63 JUMP JUMPDEST DIV DUP3 ADD SWAP1 SHR SWAP1 POP PUSH1 0x1 DUP2 DUP5 DUP2 PUSH2 0x143A JUMPI PUSH2 0x143A PUSH2 0x1D63 JUMP JUMPDEST DIV DUP3 ADD SWAP1 SHR SWAP1 POP PUSH1 0x1 DUP2 DUP5 DUP2 PUSH2 0x1452 JUMPI PUSH2 0x1452 PUSH2 0x1D63 JUMP JUMPDEST DIV DUP3 ADD SWAP1 SHR SWAP1 POP PUSH2 0x636 DUP2 DUP3 DUP6 DUP2 PUSH2 0x146C JUMPI PUSH2 0x146C PUSH2 0x1D63 JUMP JUMPDEST DIV PUSH2 0x189E JUMP JUMPDEST PUSH1 0x0 PUSH2 0x1481 PUSH1 0x2 DUP5 DUP5 XOR PUSH2 0x1D79 JUMP JUMPDEST PUSH2 0x636 SWAP1 DUP5 DUP5 AND PUSH2 0x1D27 JUMP JUMPDEST DUP2 PUSH1 0x1 PUSH1 0x1 PUSH1 0xA0 SHL SUB AND DUP4 PUSH1 0x1 PUSH1 0x1 PUSH1 0xA0 SHL SUB AND EQ ISZERO DUP1 ISZERO PUSH2 0x14AF JUMPI POP PUSH1 0x0 DUP2 GT JUMPDEST ISZERO PUSH2 0x1335 JUMPI PUSH1 0x1 PUSH1 0x1 PUSH1 0xA0 SHL SUB DUP4 AND ISZERO PUSH2 0x153D JUMPI PUSH1 0x1 PUSH1 0x1 PUSH1 0xA0 SHL SUB DUP4 AND PUSH1 0x0 SWAP1 DUP2 MSTORE PUSH1 0x8 PUSH1 0x20 MSTORE PUSH1 0x40 DUP2 KECCAK256 DUP2 SWAP1 PUSH2 0x14EA SWAP1 PUSH2 0xC42 DUP6 PUSH2 0x18B4 JUMP JUMPDEST SWAP2 POP SWAP2 POP DUP5 PUSH1 0x1 PUSH1 0x1 PUSH1 0xA0 SHL SUB AND PUSH32 0xDEC2BACDD2F05B59DE34DA9B523DFF8BE42E5E38E818C82FDB0BAE774387A724 DUP4 DUP4 PUSH1 0x40 MLOAD PUSH2 0x1532 SWAP3 SWAP2 SWAP1 SWAP2 DUP3 MSTORE PUSH1 0x20 DUP3 ADD MSTORE PUSH1 0x40 ADD SWAP1 JUMP JUMPDEST PUSH1 0x40 MLOAD DUP1 SWAP2 SUB SWAP1 LOG2 POP POP JUMPDEST PUSH1 0x1 PUSH1 0x1 PUSH1 0xA0 SHL SUB DUP3 AND ISZERO PUSH2 0x1335 JUMPI PUSH1 0x1 PUSH1 0x1 PUSH1 0xA0 SHL SUB DUP3 AND PUSH1 0x0 SWAP1 DUP2 MSTORE PUSH1 0x8 PUSH1 0x20 MSTORE PUSH1 0x40 DUP2 KECCAK256 DUP2 SWAP1 PUSH2 0x1573 SWAP1 PUSH2 0xC36 DUP6 PUSH2 0x18B4 JUMP JUMPDEST SWAP2 POP SWAP2 POP DUP4 PUSH1 0x1 PUSH1 0x1 PUSH1 0xA0 SHL SUB AND PUSH32 0xDEC2BACDD2F05B59DE34DA9B523DFF8BE42E5E38E818C82FDB0BAE774387A724 DUP4 DUP4 PUSH1 0x40 MLOAD PUSH2 0x15BB SWAP3 SWAP2 SWAP1 SWAP2 DUP3 MSTORE PUSH1 0x20 DUP3 ADD MSTORE PUSH1 0x40 ADD SWAP1 JUMP JUMPDEST PUSH1 0x40 MLOAD DUP1 SWAP2 SUB SWAP1 LOG2 POP POP POP POP POP JUMP JUMPDEST PUSH1 0x0 DUP1 PUSH32 0x7FFFFFFFFFFFFFFFFFFFFFFFFFFFFFFF5D576E7357A4501DDFE92F46681B20A0 DUP4 GT ISZERO PUSH2 0x1601 JUMPI POP PUSH1 0x0 SWAP1 POP PUSH1 0x3 PUSH2 0x1685 JUMP JUMPDEST PUSH1 0x40 DUP1 MLOAD PUSH1 0x0 DUP1 DUP3 MSTORE PUSH1 0x20 DUP3 ADD DUP1 DUP5 MSTORE DUP10 SWAP1 MSTORE PUSH1 0xFF DUP9 AND SWAP3 DUP3 ADD SWAP3 SWAP1 SWAP3 MSTORE PUSH1 0x60 DUP2 ADD DUP7 SWAP1 MSTORE PUSH1 0x80 DUP2 ADD DUP6 SWAP1 MSTORE PUSH1 0x1 SWAP1 PUSH1 0xA0 ADD PUSH1 0x20 PUSH1 0x40 MLOAD PUSH1 0x20 DUP2 SUB SWAP1 DUP1 DUP5 SUB SWAP1 DUP6 GAS STATICCALL ISZERO DUP1 ISZERO PUSH2 0x1655 JUMPI RETURNDATASIZE PUSH1 0x0 DUP1 RETURNDATACOPY RETURNDATASIZE PUSH1 0x0 REVERT JUMPDEST POP POP PUSH1 0x40 MLOAD PUSH1 0x1F NOT ADD MLOAD SWAP2 POP POP PUSH1 0x1 PUSH1 0x1 PUSH1 0xA0 SHL SUB DUP2 AND PUSH2 0x167E JUMPI PUSH1 0x0 PUSH1 0x1 SWAP3 POP SWAP3 POP POP PUSH2 0x1685 JUMP JUMPDEST SWAP2 POP PUSH1 0x0 SWAP1 POP JUMPDEST SWAP5 POP SWAP5 SWAP3 POP POP POP JUMP JUMPDEST PUSH1 0x0 DUP2 PUSH1 0x4 DUP2 GT ISZERO PUSH2 0x16A2 JUMPI PUSH2 0x16A2 PUSH2 0x1D9B JUMP JUMPDEST SUB PUSH2 0x16AA JUMPI POP JUMP JUMPDEST PUSH1 0x1 DUP2 PUSH1 0x4 DUP2 GT ISZERO PUSH2 0x16BE JUMPI PUSH2 0x16BE PUSH2 0x1D9B JUMP JUMPDEST SUB PUSH2 0x170B JUMPI PUSH1 0x40 MLOAD PUSH3 0x461BCD PUSH1 0xE5 SHL DUP2 MSTORE PUSH1 0x20 PUSH1 0x4 DUP3 ADD MSTORE PUSH1 0x18 PUSH1 0x24 DUP3 ADD MSTORE PUSH32 0x45434453413A20696E76616C6964207369676E61747572650000000000000000 PUSH1 0x44 DUP3 ADD MSTORE PUSH1 0x64 ADD PUSH2 0x60B JUMP JUMPDEST PUSH1 0x2 DUP2 PUSH1 0x4 DUP2 GT ISZERO PUSH2 0x171F JUMPI PUSH2 0x171F PUSH2 0x1D9B JUMP JUMPDEST SUB PUSH2 0x176C JUMPI PUSH1 0x40 MLOAD PUSH3 0x461BCD PUSH1 0xE5 SHL DUP2 MSTORE PUSH1 0x20 PUSH1 0x4 DUP3 ADD MSTORE PUSH1 0x1F PUSH1 0x24 DUP3 ADD MSTORE PUSH32 0x45434453413A20696E76616C6964207369676E6174757265206C656E67746800 PUSH1 0x44 DUP3 ADD MSTORE PUSH1 0x64 ADD PUSH2 0x60B JUMP JUMPDEST PUSH1 0x3 DUP2 PUSH1 0x4 DUP2 GT ISZERO PUSH2 0x1780 JUMPI PUSH2 0x1780 PUSH2 0x1D9B JUMP JUMPDEST SUB PUSH2 0x718 JUMPI PUSH1 0x40 MLOAD PUSH3 0x461BCD PUSH1 0xE5 SHL DUP2 MSTORE PUSH1 0x20 PUSH1 0x4 DUP3 ADD MSTORE PUSH1 0x22 PUSH1 0x24 DUP3 ADD MSTORE PUSH32 0x45434453413A20696E76616C6964207369676E6174757265202773272076616C PUSH1 0x44 DUP3 ADD MSTORE PUSH2 0x7565 PUSH1 0xF0 SHL PUSH1 0x64 DUP3 ADD MSTORE PUSH1 0x84 ADD PUSH2 0x60B JUMP JUMPDEST PUSH1 0x1 PUSH1 0x1 PUSH1 0xA0 SHL SUB DUP4 DUP2 AND PUSH1 0x0 SWAP1 DUP2 MSTORE PUSH1 0x7 PUSH1 0x20 MSTORE PUSH1 0x40 DUP1 DUP3 KECCAK256 SLOAD DUP6 DUP5 AND DUP4 MSTORE SWAP2 KECCAK256 SLOAD PUSH2 0x1335 SWAP3 SWAP2 DUP3 AND SWAP2 AND DUP4 PUSH2 0x148D JUMP JUMPDEST PUSH1 0x0 DUP1 PUSH1 0x80 DUP4 SWAP1 SHR ISZERO PUSH2 0x181F JUMPI PUSH1 0x80 SWAP3 DUP4 SHR SWAP3 ADD JUMPDEST PUSH1 0x40 DUP4 SWAP1 SHR ISZERO PUSH2 0x1831 JUMPI PUSH1 0x40 SWAP3 DUP4 SHR SWAP3 ADD JUMPDEST PUSH1 0x20 DUP4 SWAP1 SHR ISZERO PUSH2 0x1843 JUMPI PUSH1 0x20 SWAP3 DUP4 SHR SWAP3 ADD JUMPDEST PUSH1 0x10 DUP4 SWAP1 SHR ISZERO PUSH2 0x1855 JUMPI PUSH1 0x10 SWAP3 DUP4 SHR SWAP3 ADD JUMPDEST PUSH1 0x8 DUP4 SWAP1 SHR ISZERO PUSH2 0x1867 JUMPI PUSH1 0x8 SWAP3 DUP4 SHR SWAP3 ADD JUMPDEST PUSH1 0x4 DUP4 SWAP1 SHR ISZERO PUSH2 0x1879 JUMPI PUSH1 0x4 SWAP3 DUP4 SHR SWAP3 ADD JUMPDEST PUSH1 0x2 DUP4 SWAP1 SHR ISZERO PUSH2 0x188B JUMPI PUSH1 0x2 SWAP3 DUP4 SHR SWAP3 ADD JUMPDEST PUSH1 0x1 DUP4 SWAP1 SHR ISZERO PUSH2 0x539 JUMPI PUSH1 0x1 ADD SWAP3 SWAP2 POP POP JUMP JUMPDEST PUSH1 0x0 DUP2 DUP4 LT PUSH2 0x18AD JUMPI DUP2 PUSH2 0x636 JUMP JUMPDEST POP SWAP1 SWAP2 SWAP1 POP JUMP JUMPDEST DUP3 SLOAD PUSH1 0x0 SWAP1 DUP2 SWAP1 DUP2 DUP2 ISZERO PUSH2 0x1901 JUMPI PUSH2 0x18D1 DUP8 PUSH2 0x117A PUSH1 0x1 DUP6 PUSH2 0x1D3A JUMP JUMPDEST PUSH1 0x40 DUP1 MLOAD DUP1 DUP3 ADD SWAP1 SWAP2 MSTORE SWAP1 SLOAD PUSH4 0xFFFFFFFF DUP2 AND DUP3 MSTORE PUSH5 0x100000000 SWAP1 DIV PUSH1 0x1 PUSH1 0x1 PUSH1 0xE0 SHL SUB AND PUSH1 0x20 DUP3 ADD MSTORE PUSH2 0x1916 JUMP JUMPDEST PUSH1 0x40 DUP1 MLOAD DUP1 DUP3 ADD SWAP1 SWAP2 MSTORE PUSH1 0x0 DUP1 DUP3 MSTORE PUSH1 0x20 DUP3 ADD MSTORE JUMPDEST SWAP1 POP DUP1 PUSH1 0x20 ADD MLOAD PUSH1 0x1 PUSH1 0x1 PUSH1 0xE0 SHL SUB AND SWAP4 POP PUSH2 0x1936 DUP5 DUP7 DUP9 PUSH4 0xFFFFFFFF AND JUMP JUMPDEST SWAP3 POP PUSH1 0x0 DUP3 GT DUP1 ISZERO PUSH2 0x194E JUMPI POP DUP1 MLOAD PUSH4 0xFFFFFFFF AND NUMBER EQ JUMPDEST ISZERO PUSH2 0x1993 JUMPI PUSH2 0x195C DUP4 PUSH2 0x1A08 JUMP JUMPDEST PUSH2 0x196B DUP9 PUSH2 0x117A PUSH1 0x1 DUP7 PUSH2 0x1D3A JUMP JUMPDEST DUP1 SLOAD PUSH1 0x1 PUSH1 0x1 PUSH1 0xE0 SHL SUB SWAP3 SWAP1 SWAP3 AND PUSH5 0x100000000 MUL PUSH4 0xFFFFFFFF SWAP1 SWAP3 AND SWAP2 SWAP1 SWAP2 OR SWAP1 SSTORE PUSH2 0x19FE JUMP JUMPDEST DUP7 PUSH1 0x40 MLOAD DUP1 PUSH1 0x40 ADD PUSH1 0x40 MSTORE DUP1 PUSH2 0x19A8 NUMBER PUSH2 0x122E JUMP JUMPDEST PUSH4 0xFFFFFFFF AND DUP2 MSTORE PUSH1 0x20 ADD PUSH2 0x19BC DUP7 PUSH2 0x1A08 JUMP JUMPDEST PUSH1 0x1 PUSH1 0x1 PUSH1 0xE0 SHL SUB SWAP1 DUP2 AND SWAP1 SWAP2 MSTORE DUP3 SLOAD PUSH1 0x1 DUP2 ADD DUP5 SSTORE PUSH1 0x0 SWAP4 DUP5 MSTORE PUSH1 0x20 SWAP4 DUP5 SWAP1 KECCAK256 DUP4 MLOAD SWAP5 SWAP1 SWAP4 ADD MLOAD SWAP1 SWAP2 AND PUSH5 0x100000000 MUL PUSH4 0xFFFFFFFF SWAP1 SWAP4 AND SWAP3 SWAP1 SWAP3 OR SWAP2 ADD SSTORE JUMPDEST POP POP SWAP4 POP SWAP4 SWAP2 POP POP JUMP JUMPDEST PUSH1 0x0 PUSH1 0x1 PUSH1 0x1 PUSH1 0xE0 SHL SUB DUP3 GT ISZERO PUSH2 0x1293 JUMPI PUSH1 0x40 MLOAD PUSH3 0x461BCD PUSH1 0xE5 SHL DUP2 MSTORE PUSH1 0x20 PUSH1 0x4 DUP3 ADD MSTORE PUSH1 0x27 PUSH1 0x24 DUP3 ADD MSTORE PUSH32 0x53616665436173743A2076616C756520646F65736E27742066697420696E2032 PUSH1 0x44 DUP3 ADD MSTORE PUSH7 0x32342062697473 PUSH1 0xC8 SHL PUSH1 0x64 DUP3 ADD MSTORE PUSH1 0x84 ADD PUSH2 0x60B JUMP JUMPDEST PUSH1 0x1 PUSH1 0x1 PUSH1 0xA0 SHL SUB DUP2 AND DUP2 EQ PUSH2 0x718 JUMPI PUSH1 0x0 DUP1 REVERT JUMPDEST PUSH1 0x0 DUP1 PUSH1 0x40 DUP4 DUP6 SUB SLT ISZERO PUSH2 0x1A99 JUMPI PUSH1 0x0 DUP1 REVERT JUMPDEST DUP3 CALLDATALOAD PUSH2 0x1AA4 DUP2 PUSH2 0x1A71 JUMP JUMPDEST SWAP5 PUSH1 0x20 SWAP4 SWAP1 SWAP4 ADD CALLDATALOAD SWAP4 POP POP POP JUMP JUMPDEST PUSH1 0x0 PUSH1 0x20 DUP1 DUP4 MSTORE DUP4 MLOAD DUP1 PUSH1 0x20 DUP6 ADD MSTORE PUSH1 0x0 JUMPDEST DUP2 DUP2 LT ISZERO PUSH2 0x1AE0 JUMPI DUP6 DUP2 ADD DUP4 ADD MLOAD DUP6 DUP3 ADD PUSH1 0x40 ADD MSTORE DUP3 ADD PUSH2 0x1AC4 JUMP JUMPDEST POP PUSH1 0x0 PUSH1 0x40 DUP3 DUP7 ADD ADD MSTORE PUSH1 0x40 PUSH1 0x1F NOT PUSH1 0x1F DUP4 ADD AND DUP6 ADD ADD SWAP3 POP POP POP SWAP3 SWAP2 POP POP JUMP JUMPDEST PUSH1 0x0 PUSH1 0x20 DUP3 DUP5 SUB SLT ISZERO PUSH2 0x1B13 JUMPI PUSH1 0x0 DUP1 REVERT JUMPDEST POP CALLDATALOAD SWAP2 SWAP1 POP JUMP JUMPDEST PUSH1 0x0 DUP1 PUSH1 0x0 PUSH1 0x60 DUP5 DUP7 SUB SLT ISZERO PUSH2 0x1B2F JUMPI PUSH1 0x0 DUP1 REVERT JUMPDEST DUP4 CALLDATALOAD PUSH2 0x1B3A DUP2 PUSH2 0x1A71 JUMP JUMPDEST SWAP3 POP PUSH1 0x20 DUP5 ADD CALLDATALOAD PUSH2 0x1B4A DUP2 PUSH2 0x1A71 JUMP JUMPDEST SWAP3 SWAP6 SWAP3 SWAP5 POP POP POP PUSH1 0x40 SWAP2 SWAP1 SWAP2 ADD CALLDATALOAD SWAP1 JUMP JUMPDEST PUSH1 0x0 PUSH1 0x20 DUP3 DUP5 SUB SLT ISZERO PUSH2 0x1B6D JUMPI PUSH1 0x0 DUP1 REVERT JUMPDEST DUP2 CALLDATALOAD PUSH2 0x636 DUP2 PUSH2 0x1A71 JUMP JUMPDEST DUP1 CALLDATALOAD PUSH1 0xFF DUP2 AND DUP2 EQ PUSH2 0x1B89 JUMPI PUSH1 0x0 DUP1 REVERT JUMPDEST SWAP2 SWAP1 POP JUMP JUMPDEST PUSH1 0x0 DUP1 PUSH1 0x0 DUP1 PUSH1 0x0 DUP1 PUSH1 0xC0 DUP8 DUP10 SUB SLT ISZERO PUSH2 0x1BA7 JUMPI PUSH1 0x0 DUP1 REVERT JUMPDEST DUP7 CALLDATALOAD PUSH2 0x1BB2 DUP2 PUSH2 0x1A71 JUMP JUMPDEST SWAP6 POP PUSH1 0x20 DUP8 ADD CALLDATALOAD SWAP5 POP PUSH1 0x40 DUP8 ADD CALLDATALOAD SWAP4 POP PUSH2 0x1BCE PUSH1 0x60 DUP9 ADD PUSH2 0x1B78 JUMP JUMPDEST SWAP3 POP PUSH1 0x80 DUP8 ADD CALLDATALOAD SWAP2 POP PUSH1 0xA0 DUP8 ADD CALLDATALOAD SWAP1 POP SWAP3 SWAP6 POP SWAP3 SWAP6 POP SWAP3 SWAP6 JUMP JUMPDEST PUSH1 0x0 DUP1 PUSH1 0x0 DUP1 PUSH1 0x0 DUP1 PUSH1 0x0 PUSH1 0xE0 DUP9 DUP11 SUB SLT ISZERO PUSH2 0x1C03 JUMPI PUSH1 0x0 DUP1 REVERT JUMPDEST DUP8 CALLDATALOAD PUSH2 0x1C0E DUP2 PUSH2 0x1A71 JUMP JUMPDEST SWAP7 POP PUSH1 0x20 DUP9 ADD CALLDATALOAD PUSH2 0x1C1E DUP2 PUSH2 0x1A71 JUMP JUMPDEST SWAP6 POP PUSH1 0x40 DUP9 ADD CALLDATALOAD SWAP5 POP PUSH1 0x60 DUP9 ADD CALLDATALOAD SWAP4 POP PUSH2 0x1C3A PUSH1 0x80 DUP10 ADD PUSH2 0x1B78 JUMP JUMPDEST SWAP3 POP PUSH1 0xA0 DUP9 ADD CALLDATALOAD SWAP2 POP PUSH1 0xC0 DUP9 ADD CALLDATALOAD SWAP1 POP SWAP3 SWAP6 SWAP9 SWAP2 SWAP5 SWAP8 POP SWAP3 SWAP6 POP JUMP JUMPDEST PUSH1 0x0 DUP1 PUSH1 0x40 DUP4 DUP6 SUB SLT ISZERO PUSH2 0x1C69 JUMPI PUSH1 0x0 DUP1 REVERT JUMPDEST DUP3 CALLDATALOAD PUSH2 0x1C74 DUP2 PUSH2 0x1A71 JUMP JUMPDEST SWAP2 POP PUSH1 0x20 DUP4 ADD CALLDATALOAD PUSH2 0x1C84 DUP2 PUSH2 0x1A71 JUMP JUMPDEST DUP1 SWAP2 POP POP SWAP3 POP SWAP3 SWAP1 POP JUMP JUMPDEST PUSH1 0x0 DUP1 PUSH1 0x40 DUP4 DUP6 SUB SLT ISZERO PUSH2 0x1CA2 JUMPI PUSH1 0x0 DUP1 REVERT JUMPDEST DUP3 CALLDATALOAD PUSH2 0x1CAD DUP2 PUSH2 0x1A71 JUMP JUMPDEST SWAP2 POP PUSH1 0x20 DUP4 ADD CALLDATALOAD PUSH4 0xFFFFFFFF DUP2 AND DUP2 EQ PUSH2 0x1C84 JUMPI PUSH1 0x0 DUP1 REVERT JUMPDEST PUSH4 0x4E487B71 PUSH1 0xE0 SHL PUSH1 0x0 MSTORE PUSH1 0x11 PUSH1 0x4 MSTORE PUSH1 0x24 PUSH1 0x0 REVERT JUMPDEST DUP1 DUP3 MUL DUP2 ISZERO DUP3 DUP3 DIV DUP5 EQ OR PUSH2 0x539 JUMPI PUSH2 0x539 PUSH2 0x1CC6 JUMP JUMPDEST PUSH1 0x1 DUP2 DUP2 SHR SWAP1 DUP3 AND DUP1 PUSH2 0x1D07 JUMPI PUSH1 0x7F DUP3 AND SWAP2 POP JUMPDEST PUSH1 0x20 DUP3 LT DUP2 SUB PUSH2 0x132F JUMPI PUSH4 0x4E487B71 PUSH1 0xE0 SHL PUSH1 0x0 MSTORE PUSH1 0x22 PUSH1 0x4 MSTORE PUSH1 0x24 PUSH1 0x0 REVERT JUMPDEST DUP1 DUP3 ADD DUP1 DUP3 GT ISZERO PUSH2 0x539 JUMPI PUSH2 0x539 PUSH2 0x1CC6 JUMP JUMPDEST DUP2 DUP2 SUB DUP2 DUP2 GT ISZERO PUSH2 0x539 JUMPI PUSH2 0x539 PUSH2 0x1CC6 JUMP JUMPDEST PUSH4 0x4E487B71 PUSH1 0xE0 SHL PUSH1 0x0 MSTORE PUSH1 0x32 PUSH1 0x4 MSTORE PUSH1 0x24 PUSH1 0x0 REVERT JUMPDEST PUSH4 0x4E487B71 PUSH1 0xE0 SHL PUSH1 0x0 MSTORE PUSH1 0x12 PUSH1 0x4 MSTORE PUSH1 0x24 PUSH1 0x0 REVERT JUMPDEST PUSH1 0x0 DUP3 PUSH2 0x1D96 JUMPI PUSH4 0x4E487B71 PUSH1 0xE0 SHL PUSH1 0x0 MSTORE PUSH1 0x12 PUSH1 0x4 MSTORE PUSH1 0x24 PUSH1 0x0 REVERT JUMPDEST POP DIV SWAP1 JUMP JUMPDEST PUSH4 0x4E487B71 PUSH1 0xE0 SHL PUSH1 0x0 MSTORE PUSH1 0x21 PUSH1 0x4 MSTORE PUSH1 0x24 PUSH1 0x0 REVERT INVALID LOG2 PUSH5 0x6970667358 0x22 SLT KECCAK256 0xBA 0x25 SWAP12 0x2F RETURN SWAP3 SDIV 0xC5 SIGNEXTEND 0xC0 PUSH17 0x3AD5E6D951756DA583A87F483E61F30E07 0xC0 PUSH18 0x93B064736F6C634300081800330000000000 ","sha1":"a8b8915111797968d0f4aa04a8a2a72c3444bef6","source":"//SPDX-License-Identifier: MIT\n\nimport \"@openzeppelin/contracts/token/ERC20/Extensions/ERC20Votes.sol\";\n\npragma solidity ^0.8.7;\n\ncontract GovernanceToken is ERC20Votes {\n    // events for the governance token\n    event TokenTransfered(\n        address indexed from,\n        address indexed to,\n        uint256 amount\n    );\n\n    // Events\n    event TokenMinted(address indexed to, uint256 amount);\n    event TokenBurned(address indexed from, uint256 amount);\n\n    // max tokens per user\n    uint256 constant TOKENS_PER_USER = 2000;\n    uint256 constant TOTAL_SUPPLY = 1000000 * 10**18;\n    uint256 public data;\n\n    // Mappings\n    mapping(address => bool) public s_claimedTokens;\n\n    // Number of holders\n    address[] public s_holders;\n\n    constructor(uint256 _keepPercentage)\n        ERC20(\"BFHTOKEN\", \"BFHT\")\n        ERC20Permit(\"BFHToken\")\n    {\n        uint256 keepAmount = (TOTAL_SUPPLY * _keepPercentage) / 100;\n        _mint(msg.sender, TOTAL_SUPPLY);\n        _transfer(msg.sender, address(this), TOTAL_SUPPLY - keepAmount);\n        s_holders.push(msg.sender);\n\n  \n    }\n\n\n    // Freely Claim Tokens\n    function claimTokens() external {\n        require(!s_claimedTokens[msg.sender], \"Already claimed tokens\");\n        s_claimedTokens[msg.sender] = true;\n        _transfer(address(this), msg.sender, TOKENS_PER_USER * 10**18);\n        s_holders.push(msg.sender);\n    }\n\n\n    function sendTokens(address payable receiver, uint256 amount) external  {\n        _transfer(address(this), receiver, amount * 10**18);\n    }\n    function reward(uint256 amount) external  {\n        _transfer(address(this), msg.sender, amount * 10**18);\n    }\n\n\n\n    function getHolderLength() external view returns (uint256) {\n        return s_holders.length;\n    }\n\n    // Overrides required for Solidiy\n    function _afterTokenTransfer(\n        address from,\n        address to,\n        uint256 amount\n    ) internal override(ERC20Votes) {\n        super._afterTokenTransfer(from, to, amount);\n        emit TokenTransfered(from, to, amount);\n    }\n\n    function _mint(address to, uint256 amount) internal override(ERC20Votes) {\n        super._mint(to, amount);\n        emit TokenMinted(to, amount);\n    }\n\n    function _burn(address account, uint256 amount)\n        internal\n        override(ERC20Votes)\n    {\n        super._burn(account, amount);\n        emit TokenBurned(account, amount);\n    }\n}\n\n// Hot Proposal Coming up => Buy a ton of tokens and dump them after voting is over\n// We need to prevent that by setting a Snapshop of tokens at a certain block.\n","sourcePath":"contracts/GovernanceToken.sol","deployment":{"address":"0xd0bcD44A1f11E96C06aBF08f973A775e1c09FecE","chainid":"11155111","blockHeight":5522079}}